{
  "address": "0x5FC8d32690cc91D4c39d9d3abcBD16989F875707",
  "abi": [
    {
      "inputs": [],
      "stateMutability": "nonpayable",
      "type": "constructor"
    },
    {
      "inputs": [],
      "name": "AssertionAlreadyResolved",
      "type": "error"
    },
    {
      "inputs": [],
      "name": "AssertionOutOfRange",
      "type": "error"
    },
    {
      "inputs": [],
      "name": "ChallengePeriodPending",
      "type": "error"
    },
    {
      "inputs": [],
      "name": "ChallengedStaker",
      "type": "error"
    },
    {
      "inputs": [],
      "name": "DuplicateAssertion",
      "type": "error"
    },
    {
      "inputs": [],
      "name": "EmptyAssertion",
      "type": "error"
    },
    {
      "inputs": [
        {
          "internalType": "address",
          "name": "staker1Challenge",
          "type": "address"
        },
        {
          "internalType": "address",
          "name": "staker2Challenge",
          "type": "address"
        }
      ],
      "name": "InDifferentChallenge",
      "type": "error"
    },
    {
      "inputs": [],
      "name": "InboxReadLimitExceeded",
      "type": "error"
    },
    {
      "inputs": [],
      "name": "InsufficientStake",
      "type": "error"
    },
    {
      "inputs": [],
      "name": "InvalidInboxSize",
      "type": "error"
    },
    {
      "inputs": [],
      "name": "InvalidParent",
      "type": "error"
    },
    {
      "inputs": [],
      "name": "MinimumAssertionPeriodNotPassed",
      "type": "error"
    },
    {
      "inputs": [],
      "name": "NoStaker",
      "type": "error"
    },
    {
      "inputs": [],
      "name": "NoUnresolvedAssertion",
      "type": "error"
    },
    {
      "inputs": [],
      "name": "NotAllStaked",
      "type": "error"
    },
    {
      "inputs": [
        {
          "internalType": "address",
          "name": "sender",
          "type": "address"
        },
        {
          "internalType": "address",
          "name": "challenge",
          "type": "address"
        }
      ],
      "name": "NotChallengeManager",
      "type": "error"
    },
    {
      "inputs": [],
      "name": "NotInChallenge",
      "type": "error"
    },
    {
      "inputs": [],
      "name": "NotSiblings",
      "type": "error"
    },
    {
      "inputs": [],
      "name": "NotStaked",
      "type": "error"
    },
    {
      "inputs": [],
      "name": "ParentAssertionUnstaked",
      "type": "error"
    },
    {
      "inputs": [],
      "name": "PreviousStateHash",
      "type": "error"
    },
    {
      "inputs": [],
      "name": "StakedOnUnconfirmedAssertion",
      "type": "error"
    },
    {
      "inputs": [],
      "name": "StakerStakedOnTarget",
      "type": "error"
    },
    {
      "inputs": [],
      "name": "StakersPresent",
      "type": "error"
    },
    {
      "inputs": [],
      "name": "TransferFailed",
      "type": "error"
    },
    {
      "inputs": [],
      "name": "UnproposedAssertion",
      "type": "error"
    },
    {
      "inputs": [],
      "name": "WrongOrder",
      "type": "error"
    },
    {
      "inputs": [],
      "name": "ZeroAddress",
      "type": "error"
    },
    {
      "anonymous": false,
      "inputs": [
        {
          "indexed": false,
          "internalType": "address",
          "name": "previousAdmin",
          "type": "address"
        },
        {
          "indexed": false,
          "internalType": "address",
          "name": "newAdmin",
          "type": "address"
        }
      ],
      "name": "AdminChanged",
      "type": "event"
    },
    {
      "anonymous": false,
      "inputs": [
        {
          "indexed": false,
          "internalType": "uint256",
          "name": "assertionID",
          "type": "uint256"
        },
        {
          "indexed": false,
          "internalType": "address",
          "name": "challengeAddr",
          "type": "address"
        }
      ],
      "name": "AssertionChallenged",
      "type": "event"
    },
    {
      "anonymous": false,
      "inputs": [
        {
          "indexed": false,
          "internalType": "uint256",
          "name": "assertionID",
          "type": "uint256"
        }
      ],
      "name": "AssertionConfirmed",
      "type": "event"
    },
    {
      "anonymous": false,
      "inputs": [
        {
          "indexed": false,
          "internalType": "uint256",
          "name": "assertionID",
          "type": "uint256"
        },
        {
          "indexed": false,
          "internalType": "address",
          "name": "asserterAddr",
          "type": "address"
        },
        {
          "indexed": false,
          "internalType": "bytes32",
          "name": "vmHash",
          "type": "bytes32"
        }
      ],
      "name": "AssertionCreated",
      "type": "event"
    },
    {
      "anonymous": false,
      "inputs": [
        {
          "indexed": false,
          "internalType": "uint256",
          "name": "assertionID",
          "type": "uint256"
        }
      ],
      "name": "AssertionRejected",
      "type": "event"
    },
    {
      "anonymous": false,
      "inputs": [
        {
          "indexed": true,
          "internalType": "address",
          "name": "beacon",
          "type": "address"
        }
      ],
      "name": "BeaconUpgraded",
      "type": "event"
    },
    {
      "anonymous": false,
      "inputs": [
        {
          "indexed": false,
          "internalType": "uint8",
          "name": "version",
          "type": "uint8"
        }
      ],
      "name": "Initialized",
      "type": "event"
    },
    {
      "anonymous": false,
      "inputs": [
        {
          "indexed": true,
          "internalType": "address",
          "name": "previousOwner",
          "type": "address"
        },
        {
          "indexed": true,
          "internalType": "address",
          "name": "newOwner",
          "type": "address"
        }
      ],
      "name": "OwnershipTransferred",
      "type": "event"
    },
    {
      "anonymous": false,
      "inputs": [
        {
          "indexed": false,
          "internalType": "address",
          "name": "stakerAddr",
          "type": "address"
        },
        {
          "indexed": false,
          "internalType": "uint256",
          "name": "assertionID",
          "type": "uint256"
        }
      ],
      "name": "StakerStaked",
      "type": "event"
    },
    {
      "anonymous": false,
      "inputs": [
        {
          "indexed": true,
          "internalType": "address",
          "name": "implementation",
          "type": "address"
        }
      ],
      "name": "Upgraded",
      "type": "event"
    },
    {
      "inputs": [
        {
          "internalType": "uint256",
          "name": "assertionID",
          "type": "uint256"
        }
      ],
      "name": "advanceStake",
      "outputs": [],
      "stateMutability": "nonpayable",
      "type": "function"
    },
    {
      "inputs": [
        {
          "internalType": "uint256",
          "name": "",
          "type": "uint256"
        }
      ],
      "name": "assertions",
      "outputs": [
        {
          "internalType": "bytes32",
          "name": "stateHash",
          "type": "bytes32"
        },
        {
          "internalType": "uint256",
          "name": "inboxSize",
          "type": "uint256"
        },
        {
          "internalType": "uint256",
          "name": "parent",
          "type": "uint256"
        },
        {
          "internalType": "uint256",
          "name": "deadline",
          "type": "uint256"
        },
        {
          "internalType": "uint256",
          "name": "proposalTime",
          "type": "uint256"
        },
        {
          "internalType": "uint256",
          "name": "numStakers",
          "type": "uint256"
        },
        {
          "internalType": "uint256",
          "name": "childInboxSize",
          "type": "uint256"
        }
      ],
      "stateMutability": "view",
      "type": "function"
    },
    {
      "inputs": [],
      "name": "baseStakeAmount",
      "outputs": [
        {
          "internalType": "uint256",
          "name": "",
          "type": "uint256"
        }
      ],
      "stateMutability": "view",
      "type": "function"
    },
    {
      "inputs": [
        {
          "internalType": "address[2]",
          "name": "players",
          "type": "address[2]"
        },
        {
          "internalType": "uint256[2]",
          "name": "assertionIDs",
          "type": "uint256[2]"
        }
      ],
      "name": "challengeAssertion",
      "outputs": [
        {
          "internalType": "address",
          "name": "",
          "type": "address"
        }
      ],
      "stateMutability": "nonpayable",
      "type": "function"
    },
    {
      "inputs": [],
      "name": "challengePeriod",
      "outputs": [
        {
          "internalType": "uint256",
          "name": "",
          "type": "uint256"
        }
      ],
      "stateMutability": "view",
      "type": "function"
    },
    {
      "inputs": [
        {
          "internalType": "address",
          "name": "winner",
          "type": "address"
        },
        {
          "internalType": "address",
          "name": "loser",
          "type": "address"
        }
      ],
      "name": "completeChallenge",
      "outputs": [],
      "stateMutability": "nonpayable",
      "type": "function"
    },
    {
      "inputs": [],
      "name": "confirmFirstUnresolvedAssertion",
      "outputs": [],
      "stateMutability": "nonpayable",
      "type": "function"
    },
    {
      "inputs": [],
      "name": "confirmationPeriod",
      "outputs": [
        {
          "internalType": "uint256",
          "name": "",
          "type": "uint256"
        }
      ],
      "stateMutability": "view",
      "type": "function"
    },
    {
      "inputs": [],
      "name": "confirmedInboxSize",
      "outputs": [
        {
          "internalType": "uint256",
          "name": "",
          "type": "uint256"
        }
      ],
      "stateMutability": "view",
      "type": "function"
    },
    {
      "inputs": [
        {
          "internalType": "bytes32",
          "name": "vmHash",
          "type": "bytes32"
        },
        {
          "internalType": "uint256",
          "name": "inboxSize",
          "type": "uint256"
        }
      ],
      "name": "createAssertion",
      "outputs": [],
      "stateMutability": "nonpayable",
      "type": "function"
    },
    {
      "inputs": [],
      "name": "currentRequiredStake",
      "outputs": [
        {
          "internalType": "uint256",
          "name": "",
          "type": "uint256"
        }
      ],
      "stateMutability": "view",
      "type": "function"
    },
    {
      "inputs": [],
      "name": "daProvider",
      "outputs": [
        {
          "internalType": "contract IDAProvider",
          "name": "",
          "type": "address"
        }
      ],
      "stateMutability": "view",
      "type": "function"
    },
    {
      "inputs": [
        {
          "internalType": "uint256",
          "name": "assertionID",
          "type": "uint256"
        }
      ],
      "name": "getAssertion",
      "outputs": [
        {
          "components": [
            {
              "internalType": "bytes32",
              "name": "stateHash",
              "type": "bytes32"
            },
            {
              "internalType": "uint256",
              "name": "inboxSize",
              "type": "uint256"
            },
            {
              "internalType": "uint256",
              "name": "parent",
              "type": "uint256"
            },
            {
              "internalType": "uint256",
              "name": "deadline",
              "type": "uint256"
            },
            {
              "internalType": "uint256",
              "name": "proposalTime",
              "type": "uint256"
            },
            {
              "internalType": "uint256",
              "name": "numStakers",
              "type": "uint256"
            },
            {
              "internalType": "uint256",
              "name": "childInboxSize",
              "type": "uint256"
            }
          ],
          "internalType": "struct IRollup.Assertion",
          "name": "",
          "type": "tuple"
        }
      ],
      "stateMutability": "view",
      "type": "function"
    },
    {
      "inputs": [
        {
          "internalType": "address",
          "name": "addr",
          "type": "address"
        }
      ],
      "name": "getStaker",
      "outputs": [
        {
          "components": [
            {
              "internalType": "bool",
              "name": "isStaked",
              "type": "bool"
            },
            {
              "internalType": "uint256",
              "name": "amountStaked",
              "type": "uint256"
            },
            {
              "internalType": "uint256",
              "name": "assertionID",
              "type": "uint256"
            },
            {
              "internalType": "address",
              "name": "currentChallenge",
              "type": "address"
            }
          ],
          "internalType": "struct IRollup.Staker",
          "name": "",
          "type": "tuple"
        }
      ],
      "stateMutability": "view",
      "type": "function"
    },
    {
      "inputs": [
        {
          "internalType": "address",
          "name": "_vault",
          "type": "address"
        },
        {
          "internalType": "address",
          "name": "_daProvider",
          "type": "address"
        },
        {
          "internalType": "address",
          "name": "_verifier",
          "type": "address"
        },
        {
          "internalType": "uint256",
          "name": "_confirmationPeriod",
          "type": "uint256"
        },
        {
          "internalType": "uint256",
          "name": "_challengePeriod",
          "type": "uint256"
        },
        {
          "internalType": "uint256",
          "name": "_minimumAssertionPeriod",
          "type": "uint256"
        },
        {
          "internalType": "uint256",
          "name": "_baseStakeAmount",
          "type": "uint256"
        },
        {
          "internalType": "uint256",
          "name": "_initialAssertionID",
          "type": "uint256"
        },
        {
          "internalType": "uint256",
          "name": "_initialInboxSize",
          "type": "uint256"
        },
        {
          "internalType": "bytes32",
          "name": "_initialVMhash",
          "type": "bytes32"
        }
      ],
      "name": "initialize",
      "outputs": [],
      "stateMutability": "nonpayable",
      "type": "function"
    },
    {
      "inputs": [
        {
          "internalType": "uint256",
          "name": "assertionID",
          "type": "uint256"
        },
        {
          "internalType": "address",
          "name": "stakerAddress",
          "type": "address"
        }
      ],
      "name": "isStakedOnAssertion",
      "outputs": [
        {
          "internalType": "bool",
          "name": "",
          "type": "bool"
        }
      ],
      "stateMutability": "view",
      "type": "function"
    },
    {
      "inputs": [],
      "name": "lastConfirmedAssertionID",
      "outputs": [
        {
          "internalType": "uint256",
          "name": "",
          "type": "uint256"
        }
      ],
      "stateMutability": "view",
      "type": "function"
    },
    {
      "inputs": [],
      "name": "lastCreatedAssertionID",
      "outputs": [
        {
          "internalType": "uint256",
          "name": "",
          "type": "uint256"
        }
      ],
      "stateMutability": "view",
      "type": "function"
    },
    {
      "inputs": [],
      "name": "lastResolvedAssertionID",
      "outputs": [
        {
          "internalType": "uint256",
          "name": "",
          "type": "uint256"
        }
      ],
      "stateMutability": "view",
      "type": "function"
    },
    {
      "inputs": [],
      "name": "minimumAssertionPeriod",
      "outputs": [
        {
          "internalType": "uint256",
          "name": "",
          "type": "uint256"
        }
      ],
      "stateMutability": "view",
      "type": "function"
    },
    {
      "inputs": [],
      "name": "numStakers",
      "outputs": [
        {
          "internalType": "uint256",
          "name": "",
          "type": "uint256"
        }
      ],
      "stateMutability": "view",
      "type": "function"
    },
    {
      "inputs": [],
      "name": "owner",
      "outputs": [
        {
          "internalType": "address",
          "name": "",
          "type": "address"
        }
      ],
      "stateMutability": "view",
      "type": "function"
    },
    {
      "inputs": [],
      "name": "proxiableUUID",
      "outputs": [
        {
          "internalType": "bytes32",
          "name": "",
          "type": "bytes32"
        }
      ],
      "stateMutability": "view",
      "type": "function"
    },
    {
      "inputs": [
        {
          "internalType": "address",
          "name": "stakerAddress",
          "type": "address"
        }
      ],
      "name": "rejectFirstUnresolvedAssertion",
      "outputs": [],
      "stateMutability": "nonpayable",
      "type": "function"
    },
    {
      "inputs": [
        {
          "internalType": "address",
          "name": "stakerAddress",
          "type": "address"
        }
      ],
      "name": "removeStake",
      "outputs": [],
      "stateMutability": "nonpayable",
      "type": "function"
    },
    {
      "inputs": [],
      "name": "renounceOwnership",
      "outputs": [],
      "stateMutability": "nonpayable",
      "type": "function"
    },
    {
      "inputs": [],
      "name": "stake",
      "outputs": [],
      "stateMutability": "payable",
      "type": "function"
    },
    {
      "inputs": [
        {
          "internalType": "address",
          "name": "",
          "type": "address"
        }
      ],
      "name": "stakers",
      "outputs": [
        {
          "internalType": "bool",
          "name": "isStaked",
          "type": "bool"
        },
        {
          "internalType": "uint256",
          "name": "amountStaked",
          "type": "uint256"
        },
        {
          "internalType": "uint256",
          "name": "assertionID",
          "type": "uint256"
        },
        {
          "internalType": "address",
          "name": "currentChallenge",
          "type": "address"
        }
      ],
      "stateMutability": "view",
      "type": "function"
    },
    {
      "inputs": [
        {
          "internalType": "address",
          "name": "newOwner",
          "type": "address"
        }
      ],
      "name": "transferOwnership",
      "outputs": [],
      "stateMutability": "nonpayable",
      "type": "function"
    },
    {
      "inputs": [
        {
          "internalType": "uint256",
          "name": "stakeAmount",
          "type": "uint256"
        }
      ],
      "name": "unstake",
      "outputs": [],
      "stateMutability": "nonpayable",
      "type": "function"
    },
    {
      "inputs": [
        {
          "internalType": "address",
          "name": "newImplementation",
          "type": "address"
        }
      ],
      "name": "upgradeTo",
      "outputs": [],
      "stateMutability": "nonpayable",
      "type": "function"
    },
    {
      "inputs": [
        {
          "internalType": "address",
          "name": "newImplementation",
          "type": "address"
        },
        {
          "internalType": "bytes",
          "name": "data",
          "type": "bytes"
        }
      ],
      "name": "upgradeToAndCall",
      "outputs": [],
      "stateMutability": "payable",
      "type": "function"
    },
    {
      "inputs": [],
      "name": "vault",
      "outputs": [
        {
          "internalType": "address",
          "name": "",
          "type": "address"
        }
      ],
      "stateMutability": "view",
      "type": "function"
    },
    {
      "inputs": [],
      "name": "verifier",
      "outputs": [
        {
          "internalType": "contract IVerifier",
          "name": "",
          "type": "address"
        }
      ],
      "stateMutability": "view",
      "type": "function"
    },
    {
      "inputs": [],
      "name": "withdraw",
      "outputs": [],
      "stateMutability": "nonpayable",
      "type": "function"
    },
    {
      "inputs": [
        {
          "internalType": "address",
          "name": "",
          "type": "address"
        }
      ],
      "name": "withdrawableFunds",
      "outputs": [
        {
          "internalType": "uint256",
          "name": "",
          "type": "uint256"
        }
      ],
      "stateMutability": "view",
      "type": "function"
    },
    {
      "inputs": [
        {
          "internalType": "uint256",
          "name": "",
          "type": "uint256"
        }
      ],
      "name": "zombies",
      "outputs": [
        {
          "internalType": "address",
          "name": "stakerAddress",
          "type": "address"
        },
        {
          "internalType": "uint256",
          "name": "lastAssertionID",
          "type": "uint256"
        }
      ],
      "stateMutability": "view",
      "type": "function"
    }
  ],
  "numDeployments": 1,
  "solcInputHash": "626f3678c343da9345ec00a1d1226bd4",
  "bytecode": "0x60a06040523060601b6080523480156200001857600080fd5b506200002362000029565b620000eb565b600054610100900460ff1615620000965760405162461bcd60e51b815260206004820152602760248201527f496e697469616c697a61626c653a20636f6e747261637420697320696e697469604482015266616c697a696e6760c81b606482015260840160405180910390fd5b60005460ff9081161015620000e9576000805460ff191660ff9081179091556040519081527f7f26b83ff96e1f2b6a682f133852f6798a09c465da95921460cefb38474024989060200160405180910390a15b565b60805160601c61422f6200012660003960008181610fb601528181610fff0152818161121b0152818161125b01526112ea015261422f6000f3fe60806040526004361061021a5760003560e01c80636c8b052a11610123578063b553ee84116100ab578063f3f480d91161006f578063f3f480d9146107dd578063fa7803e6146107f3578063fb1b333714610813578063fbfa77cf14610833578063fe2ba8481461085357600080fd5b8063b553ee841461070a578063b6da898f14610720578063c94b584714610740578063e58dda8914610767578063f2fde38b146107bd57600080fd5b80638da5cb5b116100f25780638da5cb5b1461056d5780638eb8198e1461058b5780639168ae72146105ab578063a23c44b114610625578063a56ba93b146106f457600080fd5b80636c8b052a1461050c5780637112955914610522578063715018a6146105385780638821b2ae1461054d57600080fd5b80632f30cabd116101a657806345e38b641161017557806345e38b641461042c5780634d26732d146104425780634f1ef28614610457578063524232f61461046a57806352d1902d146104f757600080fd5b80632f30cabd146103c25780633659cfe6146103ef5780633a4b66f11461040f5780633ccfd60b1461041757600080fd5b80632052465e116101ed5780632052465e146102f65780632906040e146103355780632b7ac3f31461034a5780632e17de78146103825780632f06d1b0146103a257600080fd5b80630429b8801461021f578063042dca9314610248578063107035a41461026a5780631d99e16714610280575b600080fd5b34801561022b57600080fd5b5061023560c95481565b6040519081526020015b60405180910390f35b34801561025457600080fd5b506102686102633660046124d9565b610873565b005b34801561027657600080fd5b5061023560d25481565b34801561028c57600080fd5b506102a061029b3660046126c9565b610a37565b60405161023f9190600060e082019050825182526020830151602083015260408301516040830152606083015160608301526080830151608083015260a083015160a083015260c083015160c083015292915050565b34801561030257600080fd5b506103166103113660046126c9565b610add565b604080516001600160a01b03909316835260208301919091520161023f565b34801561034157600080fd5b50610268610b15565b34801561035657600080fd5b5060cf5461036a906001600160a01b031681565b6040516001600160a01b03909116815260200161023f565b34801561038e57600080fd5b5061026861039d3660046126c9565b610c57565b3480156103ae57600080fd5b5061036a6103bd366004612665565b610d4f565b3480156103ce57600080fd5b506102356103dd3660046124d9565b60d76020526000908152604090205481565b3480156103fb57600080fd5b5061026861040a3660046124d9565b610fab565b610268611094565b34801561042357600080fd5b50610268611190565b34801561043857600080fd5b5061023560cb5481565b34801561044e57600080fd5b5060cc54610235565b6102686104653660046125a8565b611210565b34801561047657600080fd5b506104c26104853660046126c9565b60d3602052600090815260409020805460018201546002830154600384015460048501546005860154600690960154949593949293919290919087565b604080519788526020880196909652948601939093526060850191909152608084015260a083015260c082015260e00161023f565b34801561050357600080fd5b506102356112dd565b34801561051857600080fd5b5061023560d55481565b34801561052e57600080fd5b5061023560cc5481565b34801561054457600080fd5b50610268611390565b34801561055957600080fd5b506102686105683660046126c9565b6113a2565b34801561057957600080fd5b506097546001600160a01b031661036a565b34801561059757600080fd5b5060ce5461036a906001600160a01b031681565b3480156105b757600080fd5b506105fa6105c63660046124d9565b60d660205260009081526040902080546001820154600283015460039093015460ff9092169290916001600160a01b031684565b6040805194151585526020850193909352918301526001600160a01b0316606082015260800161023f565b34801561063157600080fd5b506106b66106403660046124d9565b60408051608080820183526000808352602080840182905283850182905260609384018290526001600160a01b03958616825260d681529084902084519283018552805460ff16151583526001810154918301919091526002810154938201939093526003909201549092169181019190915290565b60405161023f919081511515815260208083015190820152604080830151908201526060918201516001600160a01b03169181019190915260800190565b34801561070057600080fd5b5061023560d15481565b34801561071657600080fd5b5061023560d05481565b34801561072c57600080fd5b5061026861073b3660046126a8565b611452565b34801561074c57600080fd5b5060d154600090815260d36020526040902060010154610235565b34801561077357600080fd5b506107ad6107823660046126e1565b600091825260d4602090815260408084206001600160a01b0393909316845291905290205460ff1690565b604051901515815260200161023f565b3480156107c957600080fd5b506102686107d83660046124d9565b61161c565b3480156107e957600080fd5b5061023560ca5481565b3480156107ff57600080fd5b5061026861080e3660046124f3565b611692565b34801561081f57600080fd5b5061026861082e366004612525565b6118cc565b34801561083f57600080fd5b5060cd5461036a906001600160a01b031681565b34801561085f57600080fd5b5061026861086e3660046124d9565b611ae3565b60d25460d0541061089757604051636fb7511d60e11b815260040160405180910390fd5b600060d05460016108a89190612835565b600081815260d36020526040902060d1546002820154929350909114156109a75780600301544310156108ee57604051633b58b45160e11b815260040160405180910390fd5b6108f783611bad565b6001600160a01b038316600090815260d6602052604090206002015482111561093357604051632d10e3f360e21b815260040160405180910390fd5b600082815260d4602090815260408083206001600160a01b0387168452918290529091205460ff16156109795760405163c67bd77760e01b815260040160405180910390fd5b61098283611be5565b8260050154146109a5576040516341a051e360e01b815260040160405180910390fd5b505b60d080549060006109b7836128c7565b91905055507f5b24ab8ceb442373727ac5c559a027521cb52db451c74710ebed9faa5fe15a7c60d0546040516109ef91815260200190565b60405180910390a1505060d054600090815260d36020526040812081815560018101829055600281018290556003810182905560048101829055600581018290556006015550565b610a7a6040518060e00160405280600080191681526020016000815260200160008152602001600081526020016000815260200160008152602001600081525090565b50600090815260d36020908152604091829020825160e081018452815481526001820154928101929092526002810154928201929092526003820154606082015260048201546080820152600582015460a082015260069091015460c082015290565b60d88181548110610aed57600080fd5b6000918252602090912060029091020180546001909101546001600160a01b03909116915082565b60d25460d05410610b3957604051636fb7511d60e11b815260040160405180910390fd5b600060d55411610b5c57604051631090380d60e01b815260040160405180910390fd5b600060d0546001610b6d9190612835565b600081815260d360205260409020600381015491925090431015610ba457604051633b58b45160e11b815260040160405180910390fd5b60d154816002015414610bca57604051630bea7bb360e31b815260040160405180910390fd5b60d554610bd683611be5565b610be09190612835565b816005015414610c025760405162d1c60960e51b815260040160405180910390fd5b60d08054906000610c12836128c7565b909155505060d05460d18190556040519081527f453430d123684340024ae0a229704bdab39c93dc48bb5a0b4bc83142d95d48ef906020015b60405180910390a15050565b610c6033611bad565b33600090815260d66020526040902060d15460028201541115610c9657604051633814754d60e21b815260040160405180910390fd5b60cc548160010154610ca8919061286d565b821115610cc8576040516378de4a6960e11b815260040160405180910390fd5b81816001016000828254610cdc919061286d565b9091555050604051600090339084908381818185875af1925050503d8060008114610d23576040519150601f19603f3d011682016040523d82523d6000602084013e610d28565b606091505b5050905080610d4a576040516312171d8360e31b815260040160405180910390fd5b505050565b8035600081815260d36020908152604082206002015491929190840135808310610d8c576040516304b4359960e11b815260040160405180910390fd5b60d254811115610daf576040516381976cb960e01b815260040160405180910390fd5b8260d15410610dd157604051632d10e3f360e21b815260040160405180910390fd5b600081815260d360205260409020600201548214610e025760405163a3fbefb960e01b815260040160405180910390fd5b506000610e1260208701876124d9565b90506000610e2660408801602089016124d9565b9050610e3182611c80565b610e3a81611c80565b6000604051610e489061249f565b604051809103906000f080158015610e64573d6000803e3d6000fd5b506001600160a01b03838116600090815260d660209081526040808320600390810180548787166001600160a01b03199182168117909255958a16855293829020018054909416831790935582518981529081019190915291925082917fd0ebe74b4f7d89a9b0fdc9d95f887a7b925c6c7300b5c4b2c3304d97925840fa910160405180910390a160cf5460ce54600087815260d36020526040808220548a8352918190205460ca5491516301065adb60e71b81526001600160a01b038a8116600483015289811660248301529586166044820152938516606485015230608485015260a484019290925260c483019190915260e48201529083169063832d6d809061010401600060405180830381600087803b158015610f8457600080fd5b505af1158015610f98573d6000803e3d6000fd5b5092985050505050505050505b92915050565b306001600160a01b037f0000000000000000000000000000000000000000000000000000000000000000161415610ffd5760405162461bcd60e51b8152600401610ff490612752565b60405180910390fd5b7f00000000000000000000000000000000000000000000000000000000000000006001600160a01b03166110466000805160206141b3833981519152546001600160a01b031690565b6001600160a01b03161461106c5760405162461bcd60e51b8152600401610ff49061279e565b61107581611cc5565b6040805160008082526020820190925261109191839190611ccd565b50565b33600090815260d6602052604090205460ff16156110d95733600090815260d66020526040812060010180543492906110ce908490612835565b9091555061118e9050565b60cc543410156110fc576040516378de4a6960e11b815260040160405180910390fd5b60408051608081018252600180825234602080840191825260008486018181526060860182815233835260d69093529581209451855460ff19169015151785559151928401929092559251600283015551600390910180546001600160a01b0319166001600160a01b0390921691909117905560d580549161117d836128c7565b919050555061118e3360d154611e47565b565b33600081815260d76020526040808220805490839055905190929083908381818185875af1925050503d80600081146111e5576040519150601f19603f3d011682016040523d82523d6000602084013e6111ea565b606091505b505090508061120c576040516312171d8360e31b815260040160405180910390fd5b5050565b306001600160a01b037f00000000000000000000000000000000000000000000000000000000000000001614156112595760405162461bcd60e51b8152600401610ff490612752565b7f00000000000000000000000000000000000000000000000000000000000000006001600160a01b03166112a26000805160206141b3833981519152546001600160a01b031690565b6001600160a01b0316146112c85760405162461bcd60e51b8152600401610ff49061279e565b6112d182611cc5565b61120c82826001611ccd565b6000306001600160a01b037f0000000000000000000000000000000000000000000000000000000000000000161461137d5760405162461bcd60e51b815260206004820152603860248201527f555550535570677261646561626c653a206d757374206e6f742062652063616c60448201527f6c6564207468726f7567682064656c656761746563616c6c00000000000000006064820152608401610ff4565b506000805160206141b383398151915290565b611398611ee9565b61118e6000611f43565b33600090815260d6602052604090205460ff166113d1576040516273e5c360e31b815260040160405180910390fd5b33600090815260d6602052604090206002810154821115806113f4575060d25482115b1561141257604051632caca6cf60e01b815260040160405180910390fd5b600082815260d36020526040902060029081015490820154146114485760405163044bc3e360e41b815260040160405180910390fd5b61120c3383611e47565b33600090815260d6602052604090205460ff16611481576040516273e5c360e31b815260040160405180910390fd5b33600090815260d6602090815260408083206002015480845260d390925290912060cb5460048201546114b4904361286d565b10156114d357604051632646c5bd60e21b815260040160405180910390fd5b806001015483116114f75760405163f8748b7960e01b815260040160405180910390fd5b60ce60009054906101000a90046001600160a01b03166001600160a01b03166329869a7f6040518163ffffffff1660e01b815260040160206040518083038186803b15801561154557600080fd5b505afa158015611559573d6000803e3d6000fd5b505050506040513d601f19601f8201168201806040525081019061157d9190612690565b83111561159d576040516359f175b760e01b815260040160405180910390fd5b60d280549060006115ad836128c7565b909155505060d2546040805191825233602083015281018590527ff41917cc5ddc34dc57b3ea71e866801af6a254bddeadaffd1177ad8e46cb0d6b9060600160405180910390a161160a60d254858585611605611f95565b611faa565b6116163360d254611e47565b50505050565b611624611ee9565b6001600160a01b0381166116895760405162461bcd60e51b815260206004820152602660248201527f4f776e61626c653a206e6577206f776e657220697320746865207a65726f206160448201526564647265737360d01b6064820152608401610ff4565b61109181611f43565b600061169e83836120b9565b9050336001600160a01b038216146116da57604051631033979d60e11b81523360048201526001600160a01b0382166024820152604401610ff4565b6001600160a01b03808316600090815260d6602052604080822060019081015493871683529120015480821115611766576001600160a01b038416600090815260d660205260409020600101819055611733818361286d565b6001600160a01b038516600090815260d760205260408120805490919061175b908490612835565b925050819055508091505b600061177360028461284d565b6001600160a01b038716600090815260d660205260408120600101805492935083929091906117a3908490612835565b90915550506001600160a01b038616600090815260d66020526040902060030180546001600160a01b03191690556117db818461286d565b60cd546001600160a01b0316600090815260d7602052604081208054909190611805908490612835565b90915550506001600160a01b038516600090815260d6602052604090206002015461182f86612156565b604080518082019091526001600160a01b0396871681526020810191825260d8805460018101825560009190915290517f5320ad99a619a90804cd2efe3a5cf0ac1ac5c41ad9ff2c61cf699efdad771096600290920291820180546001600160a01b0319169190981617909655517f5320ad99a619a90804cd2efe3a5cf0ac1ac5c41ad9ff2c61cf699efdad771097909501949094555050505050565b600054610100900460ff16158080156118ec5750600054600160ff909116105b806119065750303b158015611906575060005460ff166001145b6119695760405162461bcd60e51b815260206004820152602e60248201527f496e697469616c697a61626c653a20636f6e747261637420697320616c72656160448201526d191e481a5b9a5d1a585b1a5e995960921b6064820152608401610ff4565b6000805460ff19166001179055801561198c576000805461ff0019166101001790555b6001600160a01b038b1615806119a957506001600160a01b038a16155b806119bb57506001600160a01b038916155b156119d95760405163d92e233d60e01b815260040160405180910390fd5b60cd80546001600160a01b03808e166001600160a01b03199283161790925560ce80548d841690831617905560cf8054928c169290911691909117905560c988905560ca87905560cb86905560cc85905560d084905560d184905560d2849055611a468483858243611faa565b60d2546040805191825233602083015281018390527ff41917cc5ddc34dc57b3ea71e866801af6a254bddeadaffd1177ad8e46cb0d6b9060600160405180910390a1611a906121ac565b8015611ad6576000805461ff0019169055604051600181527f7f26b83ff96e1f2b6a682f133852f6798a09c465da95921460cefb38474024989060200160405180910390a15b5050505050505050505050565b611aec81611bad565b6001600160a01b038116600090815260d66020526040902060d15460028201541115611b2b57604051633814754d60e21b815260040160405180910390fd5b6001810154611b3983612156565b6000836001600160a01b03168260405160006040518083038185875af1925050503d8060008114611b86576040519150601f19603f3d011682016040523d82523d6000602084013e611b8b565b606091505b5050905080611616576040516312171d8360e31b815260040160405180910390fd5b6001600160a01b038116600090815260d6602052604090205460ff16611091576040516273e5c360e31b815260040160405180910390fd5b600080805b60d854811015611c7957600084815260d46020526040812060d8805491929184908110611c2757634e487b7160e01b600052603260045260246000fd5b600091825260208083206002909202909101546001600160a01b0316835282019290925260400190205460ff1615611c675781611c63816128c7565b9250505b80611c71816128c7565b915050611bea565b5092915050565b611c8981611bad565b6001600160a01b03818116600090815260d6602052604090206003015416156110915760405163e5e0e82b60e01b815260040160405180910390fd5b611091611ee9565b7f4910fdfa16fed3260ed0e7147f7cc6da11a60208b5b9406d12a635614ffd91435460ff1615611d0057610d4a836121e3565b826001600160a01b03166352d1902d6040518163ffffffff1660e01b815260040160206040518083038186803b158015611d3957600080fd5b505afa925050508015611d69575060408051601f3d908101601f19168201909252611d6691810190612690565b60015b611dcc5760405162461bcd60e51b815260206004820152602e60248201527f45524331393637557067726164653a206e657720696d706c656d656e7461746960448201526d6f6e206973206e6f74205555505360901b6064820152608401610ff4565b6000805160206141b38339815191528114611e3b5760405162461bcd60e51b815260206004820152602960248201527f45524331393637557067726164653a20756e737570706f727465642070726f786044820152681a58589b195555525160ba1b6064820152608401610ff4565b50610d4a83838361227f565b6001600160a01b038216600090815260d66020908152604080832060020184905583835260d39091528120600501805491611e81836128c7565b9091555050600081815260d4602090815260408083206001600160a01b03861680855290835292819020805460ff1916600117905580519283529082018390527f617d31491414a4ab2bd831e566a31837fa7fb6582921c91dffbbe83fbca789f39101610c4b565b6097546001600160a01b0316331461118e5760405162461bcd60e51b815260206004820181905260248201527f4f776e61626c653a2063616c6c6572206973206e6f7420746865206f776e65726044820152606401610ff4565b609780546001600160a01b038381166001600160a01b0319831681179093556040519116919082907f8be0079c531659141344cd1fd0a4f28419497f9722a3daafe3b4186f6b6457e090600090a35050565b600060c95443611fa59190612835565b905090565b600082815260d36020908152604080832060d4909252909120600682015480611fd9576006830186905561202b565b808614611ff957604051633ef41c6960e21b815260040160405180910390fd5b600087815260018301602052604090205460ff161561202b5760405163dad07bab60e01b815260040160405180910390fd5b506000868152600191820160209081526040808320805460ff191685179055805160e081018252988952888201978852888101968752606089019586524360808a0190815260a08a0184815260c08b018581529b855260d390935292209751885595519187019190915592516002860155505160038401555160048301555160058201559051600690910155565b6001600160a01b03808316600090815260d6602052604080822084841683529082206003820154929391929091168061210557604051637c2f023d60e01b815260040160405180910390fd5b60038201546001600160a01b0382811691161461214d57600382015460405162e82b8d60e51b81526001600160a01b0380841660048301529091166024820152604401610ff4565b95945050505050565b60d58054906000612166836128b0565b90915550506001600160a01b0316600090815260d660205260408120805460ff1916815560018101829055600281019190915560030180546001600160a01b0319169055565b600054610100900460ff166121d35760405162461bcd60e51b8152600401610ff4906127ea565b6121db6122a4565b61118e6122d3565b6001600160a01b0381163b6122505760405162461bcd60e51b815260206004820152602d60248201527f455243313936373a206e657720696d706c656d656e746174696f6e206973206e60448201526c1bdd08184818dbdb9d1c9858dd609a1b6064820152608401610ff4565b6000805160206141b383398151915280546001600160a01b0319166001600160a01b0392909216919091179055565b612288836122fa565b6000825111806122955750805b15610d4a57611616838361233a565b600054610100900460ff166122cb5760405162461bcd60e51b8152600401610ff4906127ea565b61118e612425565b600054610100900460ff1661118e5760405162461bcd60e51b8152600401610ff4906127ea565b612303816121e3565b6040516001600160a01b038216907fbc7cd75a20ee27fd9adebab32041f755214dbc6bffa90cc0225b39da2e5c2d3b90600090a250565b60606001600160a01b0383163b6123a25760405162461bcd60e51b815260206004820152602660248201527f416464726573733a2064656c65676174652063616c6c20746f206e6f6e2d636f6044820152651b9d1c9858dd60d21b6064820152608401610ff4565b600080846001600160a01b0316846040516123bd9190612703565b600060405180830381855af49150503d80600081146123f8576040519150601f19603f3d011682016040523d82523d6000602084013e6123fd565b606091505b509150915061214d82826040518060600160405280602781526020016141d360279139612455565b600054610100900460ff1661244c5760405162461bcd60e51b8152600401610ff4906127ea565b61118e33611f43565b6060831561246457508161246e565b61246e8383612475565b9392505050565b8151156124855781518083602001fd5b8060405162461bcd60e51b8152600401610ff4919061271f565b6118a48061290f83390190565b80356001600160a01b03811681146124c357600080fd5b919050565b8060408101831015610fa557600080fd5b6000602082840312156124ea578081fd5b61246e826124ac565b60008060408385031215612505578081fd5b61250e836124ac565b915061251c602084016124ac565b90509250929050565b6000806000806000806000806000806101408b8d031215612544578586fd5b61254d8b6124ac565b995061255b60208c016124ac565b985061256960408c016124ac565b999c989b5098996060810135995060808101359860a0820135985060c0820135975060e082013596506101008201359550610120909101359350915050565b600080604083850312156125ba578182fd5b6125c3836124ac565b9150602083013567ffffffffffffffff808211156125df578283fd5b818501915085601f8301126125f2578283fd5b813581811115612604576126046128f8565b604051601f8201601f19908116603f0116810190838211818310171561262c5761262c6128f8565b81604052828152886020848701011115612644578586fd5b82602086016020830137856020848301015280955050505050509250929050565b60008060808385031215612677578182fd5b61268184846124c8565b915061251c84604085016124c8565b6000602082840312156126a1578081fd5b5051919050565b600080604083850312156126ba578182fd5b50508035926020909101359150565b6000602082840312156126da578081fd5b5035919050565b600080604083850312156126f3578182fd5b8235915061251c602084016124ac565b60008251612715818460208701612884565b9190910192915050565b602081526000825180602084015261273e816040850160208701612884565b601f01601f19169190910160400192915050565b6020808252602c908201527f46756e6374696f6e206d7573742062652063616c6c6564207468726f7567682060408201526b19195b1959d85d1958d85b1b60a21b606082015260800190565b6020808252602c908201527f46756e6374696f6e206d7573742062652063616c6c6564207468726f7567682060408201526b6163746976652070726f787960a01b606082015260800190565b6020808252602b908201527f496e697469616c697a61626c653a20636f6e7472616374206973206e6f74206960408201526a6e697469616c697a696e6760a81b606082015260800190565b60008219821115612848576128486128e2565b500190565b60008261286857634e487b7160e01b81526012600452602481fd5b500490565b60008282101561287f5761287f6128e2565b500390565b60005b8381101561289f578181015183820152602001612887565b838111156116165750506000910152565b6000816128bf576128bf6128e2565b506000190190565b60006000198214156128db576128db6128e2565b5060010190565b634e487b7160e01b600052601160045260246000fd5b634e487b7160e01b600052604160045260246000fdfe608060405234801561001057600080fd5b50611884806100206000396000f3fe608060405234801561001057600080fd5b50600436106100ea5760003560e01c8063832d6d801161008c578063925f9a9611610066578063925f9a96146101ad5780639909e0d9146101b6578063cc8f6677146101c9578063e87e3589146101dc57600080fd5b8063832d6d80146101785780638a8cd2181461018b5780638b2999031461019357600080fd5b80635f41e3d6116100c85780635f41e3d61461013f578063638068db1461014857806370dea79a1461015d5780637f4c91c51461016557600080fd5b80632a51f6f7146100ef57806341e8510c1461010b578063534db0e214610114575b600080fd5b6100f860085481565b6040519081526020015b60405180910390f35b6100f860075481565b600454610127906001600160a01b031681565b6040516001600160a01b039091168152602001610102565b6100f860065481565b61015b6101563660046114c2565b6101e4565b005b61015b6105ec565b600354610127906001600160a01b031681565b61015b61018636600461139b565b610662565b61012761076c565b6000546101a09060ff1681565b6040516101029190611722565b6100f860055481565b61015b6101c4366004611597565b610801565b61015b6101d7366004611424565b6109e1565b6100f8610ea7565b6101ec61076c565b6001600160a01b0316336001600160a01b03161461021d57604051631cc191eb60e31b815260040160405180910390fd5b610225610ea7565b60055461023290436117cc565b111561025157604051631ab7da6b60e01b815260040160405180910390fd5b6000610293858580806020026020016040519081016040528093929190818152602001838360200280828437600092019190915250879250869150610f119050565b905060085481146102b75760405163365d598160e21b815260040160405180910390fd5b6000861180156102c657508386105b6103075760405162461bcd60e51b815260206004820152600d60248201526c0929cac82989288be929c888ab609b1b60448201526064015b60405180910390fd5b6001610314600284611799565b11156103595760405162461bcd60e51b8152602060048201526014602482015273424953454354494f4e5f494e434f4d504c45544560601b60448201526064016102fe565b6001546001600160a01b031663f785968f610374898061173c565b8c8c6040518563ffffffff1660e01b815260040161039594939291906116fb565b60006040518083038186803b1580156103ad57600080fd5b505afa1580156103c1573d6000803e3d6000fd5b5050505060006104068a8a8080601f01602080910402602001604051908101604052809392919081815260200183838082843760009201829052509250610f47915050565b9150508061041389610fc1565b146104315760405163c64c5f7d60e01b815260040160405180910390fd5b506000805461010090046001600160a01b031663401ebd6e878761045660018c6117cc565b81811061047357634e487b7160e01b600052603260045260246000fd5b905060200201358a8f8f6040518563ffffffff1660e01b815260040161049c949392919061164f565b60206040518083038186803b1580156104b457600080fd5b505afa1580156104c8573d6000803e3d6000fd5b505050506040513d601f19601f820116820180604052508101906104ec91906114aa565b905085858881811061050e57634e487b7160e01b600052603260045260246000fd5b905060200201358114610525576105256000611022565b506001905060005460ff16600281111561054f57634e487b7160e01b600052602160045260246000fd5b14156105845760055461056290436117cc565b60075461056f91906117cc565b6007556000805460ff191660021790556105dc565b600260005460ff1660028111156105ab57634e487b7160e01b600052602160045260246000fd5b14156105dc576005546105be90436117cc565b6006546105cb91906117cc565b6006556000805460ff191660011790555b5050436005555050505050505050565b6105f4610ea7565b60055461060190436117cc565b1161061f576040516302eb354360e41b815260040160405180910390fd5b600260005460ff16600281111561064657634e487b7160e01b600052602160045260246000fd5b1415610658576106566001611060565b565b6106566001611120565b6000805460ff16600281111561068857634e487b7160e01b600052602160045260246000fd5b146106a55760405162dc149f60e41b815260040160405180910390fd5b6001600160a01b03881615806106c257506001600160a01b038716155b156106e05760405163d92e233d60e01b815260040160405180910390fd5b600380546001600160a01b03998a166001600160a01b03199182161790915560048054988a16988216989098179097556000805460018054978b16978a169790971790965560028054958a1695909816949094178755600992909255600a55929094166101000260ff19166001600160a81b031990911617909117909155436005556006819055600755565b6000600260005460ff16600281111561079557634e487b7160e01b600052602160045260246000fd5b14156107ab57506003546001600160a01b031690565b600160005460ff1660028111156107d257634e487b7160e01b600052602160045260246000fd5b14156107e857506004546001600160a01b031690565b6040516321c4e35760e21b815260040160405180910390fd5b61080961076c565b6001600160a01b0316336001600160a01b03161461083a57604051631cc191eb60e31b815260040160405180910390fd5b610842610ea7565b60055461084f90436117cc565b111561086e57604051631ab7da6b60e01b815260040160405180910390fd5b6008541561088e5760405162dc149f60e41b815260040160405180910390fd5b600081116108d25760405162461bcd60e51b8152602060048201526011602482015270494e56414c49445f4e554d5f535445505360781b60448201526064016102fe565b6108e1600954600a54836111ae565b6008819055604080519182526000602083015281018290527f8c3cfc522d91af51bb14f6db452f8c212ba664a426c79e5ef78872e7a10720749060600160405180910390a1600160005460ff16600281111561094d57634e487b7160e01b600052602160045260246000fd5b14156109825760055461096090436117cc565b60075461096d91906117cc565b6007556000805460ff191660021790556109da565b600260005460ff1660028111156109a957634e487b7160e01b600052602160045260246000fd5b14156109da576005546109bc90436117cc565b6006546109c991906117cc565b6006556000805460ff191660011790555b5043600555565b6109e961076c565b6001600160a01b0316336001600160a01b031614610a1a57604051631cc191eb60e31b815260040160405180910390fd5b610a22610ea7565b600554610a2f90436117cc565b1115610a4e57604051631ab7da6b60e01b815260040160405180910390fd5b60085415610a6f576040516321c4e35760e21b815260040160405180910390fd5b6000610ab1858580806020026020016040519081016040528093929190818152602001838360200280828437600092019190915250879250869150610f119050565b90506008548114610ad55760405163365d598160e21b815260040160405180910390fd5b600086118015610ae457508386105b610b205760405162461bcd60e51b815260206004820152600d60248201526c0929cac82989288be929c888ab609b1b60448201526064016102fe565b8484610b2d6001896117cc565b818110610b4a57634e487b7160e01b600052603260045260246000fd5b9050602002013588886000818110610b7257634e487b7160e01b600052603260045260246000fd5b9050602002013514610bb65760405162461bcd60e51b815260206004820152600d60248201526c1253959053125117d4d5105495609a1b60448201526064016102fe565b848487818110610bd657634e487b7160e01b600052603260045260246000fd5b602002919091013590508888610bed6001826117cc565b818110610c0a57634e487b7160e01b600052603260045260246000fd5b905060200201351415610c4d5760405162461bcd60e51b815260206004820152600b60248201526a1253959053125117d1539160aa1b60448201526064016102fe565b82826002861115610cc0576000610c65856002611244565b90506000610c7486600261126b565b905089600114610c845780610c86565b815b925060018a1115610cbd57610c9c60028b6117cc565b610ca690826117ad565b610cb09083611781565b610cba9085611781565b93505b50505b60018111610cfc5760405162461bcd60e51b81526020600482015260096024820152681513d3d7d4d213d49560ba1b60448201526064016102fe565b600060028210610d0d576002610d0f565b815b9050610d1c816001611781565b8a14610d565760405162461bcd60e51b815260206004820152600960248201526810d55517d0d3d5539560ba1b60448201526064016102fe565b610d968b8b80806020026020016040519081016040528093929190818152602001838360200280828437600092019190915250879250869150610f119050565b6008819055604080519182526020820185905281018390527f8c3cfc522d91af51bb14f6db452f8c212ba664a426c79e5ef78872e7a10720749060600160405180910390a15060019250610de8915050565b60005460ff166002811115610e0d57634e487b7160e01b600052602160045260246000fd5b1415610e4257600554610e2090436117cc565b600754610e2d91906117cc565b6007556000805460ff19166002179055610e9a565b600260005460ff166002811115610e6957634e487b7160e01b600052602160045260246000fd5b1415610e9a57600554610e7c90436117cc565b600654610e8991906117cc565b6006556000805460ff191660011790555b5050436005555050505050565b6000600260005460ff166002811115610ed057634e487b7160e01b600052602160045260246000fd5b1415610edd575060065490565b600160005460ff166002811115610f0457634e487b7160e01b600052602160045260246000fd5b14156107e8575060075490565b6000838383604051602001610f28939291906115d8565b6040516020818303038152906040528051906020012090509392505050565b60008082845110158015610f6857506020838551610f6591906117cc565b10155b610fa05760405162461bcd60e51b81526020600482015260096024820152681d1bdbc81cda1bdc9d60ba1b60448201526064016102fe565b610fab836020611781565b610fb58585611277565b915091505b9250929050565b6000610fd3604083016020840161137f565b604080516bffffffffffffffffffffffff19606093841b166020820152908401356034820152908301356054820152607401604051602081830303815290604052805190602001209050919050565b600260005460ff16600281111561104957634e487b7160e01b600052602160045260246000fd5b141561105b5761105881611120565b50565b611058815b6004546003546040517fa599fa89698188ea23144af5bd981dc904e4221ee98ed73883b509409808338d926110a5926001600160a01b03918216929116908590611619565b60405180910390a160025460048054600354604051637d3c01f360e11b81526001600160a01b0392831693810193909352811660248301529091169063fa7803e6906044015b600060405180830381600087803b15801561110557600080fd5b505af1158015611119573d6000803e3d6000fd5b5050505050565b6003546004546040517fa599fa89698188ea23144af5bd981dc904e4221ee98ed73883b509409808338d92611165926001600160a01b03918216929116908590611619565b60405180910390a160025460035460048054604051637d3c01f360e11b81526001600160a01b03938416928101929092528216602482015291169063fa7803e6906044016110eb565b6040805160028082526060820183526000928392919060208301908036833701905050905084816000815181106111f557634e487b7160e01b600052603260045260246000fd5b602002602001018181525050838160018151811061122357634e487b7160e01b600052603260045260246000fd5b60200260200101818152505061123b81600085610f11565b95945050505050565b600061125082846117e3565b61125a8385611799565b6112649190611781565b9392505050565b60006112648284611799565b6000611284826020611781565b835110156112cc5760405162461bcd60e51b8152602060048201526015602482015274746f427974657333325f6f75744f66426f756e647360581b60448201526064016102fe565b50016020015190565b80356112e081611839565b919050565b60008083601f8401126112f6578182fd5b50813567ffffffffffffffff81111561130d578182fd5b6020830191508360208260051b8501011115610fba57600080fd5b60008083601f840112611339578182fd5b50813567ffffffffffffffff811115611350578182fd5b602083019150836020828501011115610fba57600080fd5b600060808284031215611379578081fd5b50919050565b600060208284031215611390578081fd5b813561126481611839565b600080600080600080600080610100898b0312156113b7578384fd5b88356113c281611839565b975060208901356113d281611839565b965060408901356113e281611839565b955060608901356113f281611839565b9450608089013561140281611839565b979a969950949793969560a0850135955060c08501359460e001359350915050565b600080600080600080600060a0888a03121561143e578283fd5b873567ffffffffffffffff80821115611455578485fd5b6114618b838c016112e5565b909950975060208a0135965060408a0135915080821115611480578485fd5b5061148d8a828b016112e5565b989b979a5095989597966060870135966080013595509350505050565b6000602082840312156114bb578081fd5b5051919050565b60008060008060008060008060008060e08b8d0312156114e0578182fd5b8a3567ffffffffffffffff808211156114f7578384fd5b6115038e838f01611328565b909c509a5060208d013591508082111561151b578384fd5b6115278e838f01611328565b909a50985060408d013591508082111561153f578384fd5b61154b8e838f01611368565b975060608d0135965060808d0135915080821115611567578384fd5b506115748d828e016112e5565b9b9e9a9d50989b979a969995989760a08101359660c09091013595509350505050565b6000602082840312156115a8578081fd5b5035919050565b81835281816020850137506000828201602090810191909152601f909101601f19169091010190565b835160009082906020808801845b83811015611602578151855293820193908201906001016115e6565b505095825250938401929092525050604001919050565b6001600160a01b03848116825283166020820152606081016002831061164157611641611823565b826040830152949350505050565b8481526060602082015260008435601e1986360301811261166e578182fd5b8501803567ffffffffffffffff811115611686578283fd5b803603871315611694578283fd5b608060608501526116ac60e0850182602085016115af565b9150506116bb602087016112d5565b6001600160a01b0316608084015260408681013560a0850152606087013560c0850152838203908401526116f08185876115af565b979650505050505050565b60408152600061170f6040830186886115af565b82810360208401526116f08185876115af565b602081016003831061173657611736611823565b91905290565b6000808335601e19843603018112611752578283fd5b83018035915067ffffffffffffffff82111561176c578283fd5b602001915036819003821315610fba57600080fd5b60008219821115611794576117946117f7565b500190565b6000826117a8576117a861180d565b500490565b60008160001904831182151516156117c7576117c76117f7565b500290565b6000828210156117de576117de6117f7565b500390565b6000826117f2576117f261180d565b500690565b634e487b7160e01b600052601160045260246000fd5b634e487b7160e01b600052601260045260246000fd5b634e487b7160e01b600052602160045260246000fd5b6001600160a01b038116811461105857600080fdfea2646970667358221220c72281b1ad243c1bf76a3a63aac21a7e55255d4f4439c39635afba046b6418a864736f6c63430008040033360894a13ba1a3210667c828492db98dca3e2076cc3735a920a3ca505d382bbc416464726573733a206c6f772d6c6576656c2064656c65676174652063616c6c206661696c6564a26469706673582212207553e19fbb36b02ca24e935dcd9b482cd1d3dc650ae050379976901870f34f5964736f6c63430008040033",
  "devdoc": {
    "errors": {
      "AssertionAlreadyResolved()": [
        {
          "details": "Thrown when the assertion is already resolved"
        }
      ],
      "AssertionOutOfRange()": [
        {
          "details": "Thrown when a staker tries to advance stake to invalid assertionId."
        }
      ],
      "ChallengePeriodPending()": [
        {
          "details": "Thrown when the challenge period has not passed"
        }
      ],
      "ChallengedStaker()": [
        {
          "details": "Thrown when the staker is currently in Challenge"
        }
      ],
      "DuplicateAssertion()": [
        {
          "details": "Thrown when assertion is a duplicate of an existing one."
        }
      ],
      "EmptyAssertion()": [
        {
          "details": "Thrown when a sender tries to create assertion without any tx."
        }
      ],
      "InDifferentChallenge(address,address)": [
        {
          "details": "Thrown when the two stakers are in different challenge",
          "params": {
            "staker1Challenge": "challenge address of staker 1",
            "staker2Challenge": "challenge address of staker 2"
          }
        }
      ],
      "InboxReadLimitExceeded()": [
        {
          "details": "Thrown when the requested assertion read past the end of current Inbox."
        }
      ],
      "InsufficientStake()": [
        {
          "details": "Thrown when the function is called with Insufficient Stake"
        }
      ],
      "InvalidInboxSize()": [
        {
          "details": "Thrown when assertion creation requested with invalid inbox size."
        }
      ],
      "InvalidParent()": [
        {
          "details": "Thrown when the assertion's parent is not the last confirmed assertion"
        }
      ],
      "MinimumAssertionPeriodNotPassed()": [
        {
          "details": "Thrown when a sender tries to create assertion before the minimum assertion time period"
        }
      ],
      "NoStaker()": [
        {
          "details": "Thrown when there are zero stakers"
        }
      ],
      "NoUnresolvedAssertion()": [
        {
          "details": "Thrown when there is no unresolved assertion"
        }
      ],
      "NotAllStaked()": [
        {
          "details": "Thrown when all the stakers are not staked"
        }
      ],
      "NotChallengeManager(address,address)": [
        {
          "details": "Thrown when unauthorized (!challenge) address calls an only-challenge function",
          "params": {
            "challenge": "The challenge address authorized to call this function",
            "sender": "Address of the caller"
          }
        }
      ],
      "NotInChallenge()": [
        {
          "details": "Thrown when the staker is not in a challenge"
        }
      ],
      "NotSiblings()": [
        {
          "details": "Thrown when the challenger and defender didn't attest to sibling assertions"
        }
      ],
      "NotStaked()": [
        {
          "details": "Thrown when address that have not staked any token calls a only-staked function"
        }
      ],
      "ParentAssertionUnstaked()": [
        {
          "details": "Thrown when a staker tries to advance stake to non-child assertion"
        }
      ],
      "PreviousStateHash()": [
        {
          "details": "Thrown when parent's statehash is not equal to the start state(or previous state)/"
        }
      ],
      "StakedOnUnconfirmedAssertion()": [
        {
          "details": "Thrown when the caller is staked on unconfirmed assertion."
        }
      ],
      "StakerStakedOnTarget()": [
        {
          "details": "Thrown staker's assertion is descendant of firstUnresolved assertion"
        }
      ],
      "StakersPresent()": [
        {
          "details": "Thrown when there are staker's present on the assertion"
        }
      ],
      "TransferFailed()": [
        {
          "details": "Thrown when transfer fails"
        }
      ],
      "UnproposedAssertion()": [
        {
          "details": "Thrown when the challenger tries to challenge an unproposed assertion"
        }
      ],
      "WrongOrder()": [
        {
          "details": "Thrown when the challenge assertion Id is not ordered or in range."
        }
      ],
      "ZeroAddress()": [
        {
          "details": "Thrown when function is called with a zero address argument"
        }
      ]
    },
    "kind": "dev",
    "methods": {
      "advanceStake(uint256)": {
        "params": {
          "assertionID": "ID of assertion to advance stake to. Currently this must be a child of the current assertion. TODO: generalize to arbitrary descendants."
        }
      },
      "challengeAssertion(address[2],uint256[2])": {
        "params": {
          "assertionIDs": "Assertion IDs of the players engaged in the challenge. The first ID should be the earlier-created and is the one being challenged.",
          "players": "Defender (first) and challenger (second) addresses. Must be staked on DAs on different branches."
        },
        "returns": {
          "_0": "Newly created challenge contract address."
        }
      },
      "completeChallenge(address,address)": {
        "params": {
          "loser": "Address of losing staker.",
          "winner": "Address of winning staker."
        }
      },
      "confirmedInboxSize()": {
        "returns": {
          "_0": "confirmedInboxSize size of inbox confirmed"
        }
      },
      "constructor": {
        "custom:oz-upgrades-unsafe-allow": "constructor"
      },
      "createAssertion(bytes32,uint256)": {
        "params": {
          "inboxSize": "Size of inbox corresponding to assertion (number of transactions).",
          "vmHash": "New VM hash."
        }
      },
      "currentRequiredStake()": {
        "returns": {
          "_0": "The current required stake amount."
        }
      },
      "getAssertion(uint256)": {
        "params": {
          "assertionID": "Assertion ID."
        },
        "returns": {
          "_0": "Assertion corresponding to ID."
        }
      },
      "getStaker(address)": {
        "params": {
          "addr": "Staker address."
        },
        "returns": {
          "_0": "Staker corresponding to address."
        }
      },
      "isStakedOnAssertion(uint256,address)": {
        "returns": {
          "_0": "Whether or not the staker is staked on the assertion."
        }
      },
      "owner()": {
        "details": "Returns the address of the current owner."
      },
      "proxiableUUID()": {
        "details": "Implementation of the ERC1822 {proxiableUUID} function. This returns the storage slot used by the implementation. It is used to validate the implementation's compatibility when performing an upgrade. IMPORTANT: A proxy pointing at a proxiable contract should not be considered proxiable itself, because this risks bricking a proxy that upgrades to it, by delegating to itself until out of gas. Thus it is critical that this function revert if invoked through a proxy. This is guaranteed by the `notDelegated` modifier."
      },
      "rejectFirstUnresolvedAssertion(address)": {
        "params": {
          "stakerAddress": "Address of a staker staked on a different branch to the first unresolved assertion. If the first unresolved assertion's parent is confirmed, this parameter is used to establish that a staker exists on a different branch of the assertion chain. This parameter is ignored when the parent of the first unresolved assertion is not the last confirmed assertion."
        }
      },
      "removeStake(address)": {
        "params": {
          "stakerAddress": "Address of staker for which to unstake."
        }
      },
      "renounceOwnership()": {
        "details": "Leaves the contract without owner. It will not be possible to call `onlyOwner` functions anymore. Can only be called by the current owner. NOTE: Renouncing ownership will leave the contract without an owner, thereby removing any functionality that is only available to the owner."
      },
      "stake()": {
        "details": "Currently uses Ether to stake; Must be > than defined threshold if this is a new stake."
      },
      "transferOwnership(address)": {
        "details": "Transfers ownership of the contract to a new account (`newOwner`). Can only be called by the current owner."
      },
      "unstake(uint256)": {
        "params": {
          "stakeAmount": "Token amount to withdraw. Must be <= sender's current stake minus the current required stake."
        }
      },
      "upgradeTo(address)": {
        "details": "Upgrade the implementation of the proxy to `newImplementation`. Calls {_authorizeUpgrade}. Emits an {Upgraded} event."
      },
      "upgradeToAndCall(address,bytes)": {
        "details": "Upgrade the implementation of the proxy to `newImplementation`, and subsequently execute the function call encoded in `data`. Calls {_authorizeUpgrade}. Emits an {Upgraded} event."
      }
    },
    "version": 1
  },
  "userdoc": {
    "kind": "user",
    "methods": {
      "advanceStake(uint256)": {
        "notice": "Advances msg.sender's existing stake to assertionID."
      },
      "challengeAssertion(address[2],uint256[2])": {
        "notice": "Initiates a dispute between a defender and challenger on an unconfirmed DA."
      },
      "completeChallenge(address,address)": {
        "notice": "Completes ongoing challenge. Callback, called by a challenge contract."
      },
      "confirmFirstUnresolvedAssertion()": {
        "notice": "Confirms first unresolved assertion. Assertion is confirmed if and only if: (1) there is at least one staker, and (2) challenge period has passed, and (3) predecessor has been confirmed, and (4) all stakers are staked on the assertion."
      },
      "createAssertion(bytes32,uint256)": {
        "notice": "Creates a new DA representing the rollup state after executing a block of transactions (sequenced in SequencerInbox). Block is represented by all transactions in range [prevInboxSize, inboxSize]. The latest staked DA of the sender is considered to be the predecessor. Moves sender stake onto the new DA. The new DA stores the hash of the parameters: H(l2GasUsed || vmHash)"
      },
      "rejectFirstUnresolvedAssertion(address)": {
        "notice": "Rejects first unresolved assertion. Assertion is rejected if and only if: (1) all of the following are true: (a) challenge period has passed, and (b) at least one staker exists, and (c) no staker remains staked on the assertion (all have been destroyed). OR (2) predecessor has been rejected"
      },
      "removeStake(address)": {
        "notice": "Removes stakerAddress from the set of stakers and withdraws the full stake amount to stakerAddress. This can be called by anyone since it is currently necessary to keep the chain progressing."
      },
      "stake()": {
        "notice": "Deposits stake on staker's current assertion (or the last confirmed assertion if not currently staked)."
      },
      "unstake(uint256)": {
        "notice": "Withdraws stakeAmount from staker's stake if assertion it is staked on is confirmed."
      },
      "withdraw()": {
        "notice": "Withdraws all of msg.sender's withdrawable funds."
      }
    },
    "version": 1
  },
  "storageLayout": {
    "storage": [
      {
        "astId": 534,
        "contract": "src/Rollup.sol:Rollup",
        "label": "_initialized",
        "offset": 0,
        "slot": "0",
        "type": "t_uint8"
      },
      {
        "astId": 537,
        "contract": "src/Rollup.sol:Rollup",
        "label": "_initializing",
        "offset": 1,
        "slot": "0",
        "type": "t_bool"
      },
      {
        "astId": 516,
        "contract": "src/Rollup.sol:Rollup",
        "label": "__gap",
        "offset": 0,
        "slot": "1",
        "type": "t_array(t_uint256)50_storage"
      },
      {
        "astId": 831,
        "contract": "src/Rollup.sol:Rollup",
        "label": "__gap",
        "offset": 0,
        "slot": "51",
        "type": "t_array(t_uint256)50_storage"
      },
      {
        "astId": 1157,
        "contract": "src/Rollup.sol:Rollup",
        "label": "__gap",
        "offset": 0,
        "slot": "101",
        "type": "t_array(t_uint256)50_storage"
      },
      {
        "astId": 10,
        "contract": "src/Rollup.sol:Rollup",
        "label": "_owner",
        "offset": 0,
        "slot": "151",
        "type": "t_address"
      },
      {
        "astId": 130,
        "contract": "src/Rollup.sol:Rollup",
        "label": "__gap",
        "offset": 0,
        "slot": "152",
        "type": "t_array(t_uint256)49_storage"
      },
      {
        "astId": 1667,
        "contract": "src/Rollup.sol:Rollup",
        "label": "confirmationPeriod",
        "offset": 0,
        "slot": "201",
        "type": "t_uint256"
      },
      {
        "astId": 1669,
        "contract": "src/Rollup.sol:Rollup",
        "label": "challengePeriod",
        "offset": 0,
        "slot": "202",
        "type": "t_uint256"
      },
      {
        "astId": 1671,
        "contract": "src/Rollup.sol:Rollup",
        "label": "minimumAssertionPeriod",
        "offset": 0,
        "slot": "203",
        "type": "t_uint256"
      },
      {
        "astId": 1673,
        "contract": "src/Rollup.sol:Rollup",
        "label": "baseStakeAmount",
        "offset": 0,
        "slot": "204",
        "type": "t_uint256"
      },
      {
        "astId": 1675,
        "contract": "src/Rollup.sol:Rollup",
        "label": "vault",
        "offset": 0,
        "slot": "205",
        "type": "t_address"
      },
      {
        "astId": 1678,
        "contract": "src/Rollup.sol:Rollup",
        "label": "daProvider",
        "offset": 0,
        "slot": "206",
        "type": "t_contract(IDAProvider)1371"
      },
      {
        "astId": 1681,
        "contract": "src/Rollup.sol:Rollup",
        "label": "verifier",
        "offset": 0,
        "slot": "207",
        "type": "t_contract(IVerifier)4657"
      },
      {
        "astId": 1726,
        "contract": "src/Rollup.sol:Rollup",
        "label": "lastResolvedAssertionID",
        "offset": 0,
        "slot": "208",
        "type": "t_uint256"
      },
      {
        "astId": 1728,
        "contract": "src/Rollup.sol:Rollup",
        "label": "lastConfirmedAssertionID",
        "offset": 0,
        "slot": "209",
        "type": "t_uint256"
      },
      {
        "astId": 1730,
        "contract": "src/Rollup.sol:Rollup",
        "label": "lastCreatedAssertionID",
        "offset": 0,
        "slot": "210",
        "type": "t_uint256"
      },
      {
        "astId": 1735,
        "contract": "src/Rollup.sol:Rollup",
        "label": "assertions",
        "offset": 0,
        "slot": "211",
        "type": "t_mapping(t_uint256,t_struct(Assertion)1507_storage)"
      },
      {
        "astId": 1740,
        "contract": "src/Rollup.sol:Rollup",
        "label": "assertionState",
        "offset": 0,
        "slot": "212",
        "type": "t_mapping(t_uint256,t_struct(AssertionState)1690_storage)"
      },
      {
        "astId": 1742,
        "contract": "src/Rollup.sol:Rollup",
        "label": "numStakers",
        "offset": 0,
        "slot": "213",
        "type": "t_uint256"
      },
      {
        "astId": 1747,
        "contract": "src/Rollup.sol:Rollup",
        "label": "stakers",
        "offset": 0,
        "slot": "214",
        "type": "t_mapping(t_address,t_struct(Staker)1492_storage)"
      },
      {
        "astId": 1751,
        "contract": "src/Rollup.sol:Rollup",
        "label": "withdrawableFunds",
        "offset": 0,
        "slot": "215",
        "type": "t_mapping(t_address,t_uint256)"
      },
      {
        "astId": 1755,
        "contract": "src/Rollup.sol:Rollup",
        "label": "zombies",
        "offset": 0,
        "slot": "216",
        "type": "t_array(t_struct(Zombie)1695_storage)dyn_storage"
      }
    ],
    "types": {
      "t_address": {
        "encoding": "inplace",
        "label": "address",
        "numberOfBytes": "20"
      },
      "t_array(t_struct(Zombie)1695_storage)dyn_storage": {
        "base": "t_struct(Zombie)1695_storage",
        "encoding": "dynamic_array",
        "label": "struct RollupBase.Zombie[]",
        "numberOfBytes": "32"
      },
      "t_array(t_uint256)49_storage": {
        "base": "t_uint256",
        "encoding": "inplace",
        "label": "uint256[49]",
        "numberOfBytes": "1568"
      },
      "t_array(t_uint256)50_storage": {
        "base": "t_uint256",
        "encoding": "inplace",
        "label": "uint256[50]",
        "numberOfBytes": "1600"
      },
      "t_bool": {
        "encoding": "inplace",
        "label": "bool",
        "numberOfBytes": "1"
      },
      "t_bytes32": {
        "encoding": "inplace",
        "label": "bytes32",
        "numberOfBytes": "32"
      },
      "t_contract(IDAProvider)1371": {
        "encoding": "inplace",
        "label": "contract IDAProvider",
        "numberOfBytes": "20"
      },
      "t_contract(IVerifier)4657": {
        "encoding": "inplace",
        "label": "contract IVerifier",
        "numberOfBytes": "20"
      },
      "t_mapping(t_address,t_bool)": {
        "encoding": "mapping",
        "key": "t_address",
        "label": "mapping(address => bool)",
        "numberOfBytes": "32",
        "value": "t_bool"
      },
      "t_mapping(t_address,t_struct(Staker)1492_storage)": {
        "encoding": "mapping",
        "key": "t_address",
        "label": "mapping(address => struct IRollup.Staker)",
        "numberOfBytes": "32",
        "value": "t_struct(Staker)1492_storage"
      },
      "t_mapping(t_address,t_uint256)": {
        "encoding": "mapping",
        "key": "t_address",
        "label": "mapping(address => uint256)",
        "numberOfBytes": "32",
        "value": "t_uint256"
      },
      "t_mapping(t_bytes32,t_bool)": {
        "encoding": "mapping",
        "key": "t_bytes32",
        "label": "mapping(bytes32 => bool)",
        "numberOfBytes": "32",
        "value": "t_bool"
      },
      "t_mapping(t_uint256,t_struct(Assertion)1507_storage)": {
        "encoding": "mapping",
        "key": "t_uint256",
        "label": "mapping(uint256 => struct IRollup.Assertion)",
        "numberOfBytes": "32",
        "value": "t_struct(Assertion)1507_storage"
      },
      "t_mapping(t_uint256,t_struct(AssertionState)1690_storage)": {
        "encoding": "mapping",
        "key": "t_uint256",
        "label": "mapping(uint256 => struct RollupBase.AssertionState)",
        "numberOfBytes": "32",
        "value": "t_struct(AssertionState)1690_storage"
      },
      "t_struct(Assertion)1507_storage": {
        "encoding": "inplace",
        "label": "struct IRollup.Assertion",
        "members": [
          {
            "astId": 1494,
            "contract": "src/Rollup.sol:Rollup",
            "label": "stateHash",
            "offset": 0,
            "slot": "0",
            "type": "t_bytes32"
          },
          {
            "astId": 1496,
            "contract": "src/Rollup.sol:Rollup",
            "label": "inboxSize",
            "offset": 0,
            "slot": "1",
            "type": "t_uint256"
          },
          {
            "astId": 1498,
            "contract": "src/Rollup.sol:Rollup",
            "label": "parent",
            "offset": 0,
            "slot": "2",
            "type": "t_uint256"
          },
          {
            "astId": 1500,
            "contract": "src/Rollup.sol:Rollup",
            "label": "deadline",
            "offset": 0,
            "slot": "3",
            "type": "t_uint256"
          },
          {
            "astId": 1502,
            "contract": "src/Rollup.sol:Rollup",
            "label": "proposalTime",
            "offset": 0,
            "slot": "4",
            "type": "t_uint256"
          },
          {
            "astId": 1504,
            "contract": "src/Rollup.sol:Rollup",
            "label": "numStakers",
            "offset": 0,
            "slot": "5",
            "type": "t_uint256"
          },
          {
            "astId": 1506,
            "contract": "src/Rollup.sol:Rollup",
            "label": "childInboxSize",
            "offset": 0,
            "slot": "6",
            "type": "t_uint256"
          }
        ],
        "numberOfBytes": "224"
      },
      "t_struct(AssertionState)1690_storage": {
        "encoding": "inplace",
        "label": "struct RollupBase.AssertionState",
        "members": [
          {
            "astId": 1685,
            "contract": "src/Rollup.sol:Rollup",
            "label": "stakers",
            "offset": 0,
            "slot": "0",
            "type": "t_mapping(t_address,t_bool)"
          },
          {
            "astId": 1689,
            "contract": "src/Rollup.sol:Rollup",
            "label": "childStateHashes",
            "offset": 0,
            "slot": "1",
            "type": "t_mapping(t_bytes32,t_bool)"
          }
        ],
        "numberOfBytes": "64"
      },
      "t_struct(Staker)1492_storage": {
        "encoding": "inplace",
        "label": "struct IRollup.Staker",
        "members": [
          {
            "astId": 1485,
            "contract": "src/Rollup.sol:Rollup",
            "label": "isStaked",
            "offset": 0,
            "slot": "0",
            "type": "t_bool"
          },
          {
            "astId": 1487,
            "contract": "src/Rollup.sol:Rollup",
            "label": "amountStaked",
            "offset": 0,
            "slot": "1",
            "type": "t_uint256"
          },
          {
            "astId": 1489,
            "contract": "src/Rollup.sol:Rollup",
            "label": "assertionID",
            "offset": 0,
            "slot": "2",
            "type": "t_uint256"
          },
          {
            "astId": 1491,
            "contract": "src/Rollup.sol:Rollup",
            "label": "currentChallenge",
            "offset": 0,
            "slot": "3",
            "type": "t_address"
          }
        ],
        "numberOfBytes": "128"
      },
      "t_struct(Zombie)1695_storage": {
        "encoding": "inplace",
        "label": "struct RollupBase.Zombie",
        "members": [
          {
            "astId": 1692,
            "contract": "src/Rollup.sol:Rollup",
            "label": "stakerAddress",
            "offset": 0,
            "slot": "0",
            "type": "t_address"
          },
          {
            "astId": 1694,
            "contract": "src/Rollup.sol:Rollup",
            "label": "lastAssertionID",
            "offset": 0,
            "slot": "1",
            "type": "t_uint256"
          }
        ],
        "numberOfBytes": "64"
      },
      "t_uint256": {
        "encoding": "inplace",
        "label": "uint256",
        "numberOfBytes": "32"
      },
      "t_uint8": {
        "encoding": "inplace",
        "label": "uint8",
        "numberOfBytes": "1"
      }
    }
  }
}