{
  "address": "0x2E983A1Ba5e8b38AAAeC4B440B9dDcFBf72E15d1",
  "abi": [
    {
      "inputs": [],
      "stateMutability": "nonpayable",
      "type": "constructor"
    },
    {
      "inputs": [],
      "name": "EmptyBatch",
      "type": "error"
    },
    {
      "inputs": [
        {
          "internalType": "address",
          "name": "sender",
          "type": "address"
        },
        {
          "internalType": "address",
          "name": "sequencer",
          "type": "address"
        }
      ],
      "name": "NotSequencer",
      "type": "error"
    },
    {
      "inputs": [],
      "name": "ProofVerificationFailed",
      "type": "error"
    },
    {
      "inputs": [],
      "name": "TxBatchDataOverflow",
      "type": "error"
    },
    {
      "inputs": [],
      "name": "ZeroAddress",
      "type": "error"
    },
    {
      "anonymous": false,
      "inputs": [
        {
          "indexed": false,
          "internalType": "address",
          "name": "previousAdmin",
          "type": "address"
        },
        {
          "indexed": false,
          "internalType": "address",
          "name": "newAdmin",
          "type": "address"
        }
      ],
      "name": "AdminChanged",
      "type": "event"
    },
    {
      "anonymous": false,
      "inputs": [
        {
          "indexed": true,
          "internalType": "address",
          "name": "beacon",
          "type": "address"
        }
      ],
      "name": "BeaconUpgraded",
      "type": "event"
    },
    {
      "anonymous": false,
      "inputs": [
        {
          "indexed": false,
          "internalType": "uint8",
          "name": "version",
          "type": "uint8"
        }
      ],
      "name": "Initialized",
      "type": "event"
    },
    {
      "anonymous": false,
      "inputs": [
        {
          "indexed": true,
          "internalType": "address",
          "name": "previousOwner",
          "type": "address"
        },
        {
          "indexed": true,
          "internalType": "address",
          "name": "newOwner",
          "type": "address"
        }
      ],
      "name": "OwnershipTransferred",
      "type": "event"
    },
    {
      "anonymous": false,
      "inputs": [
        {
          "indexed": false,
          "internalType": "uint256",
          "name": "batchNumber",
          "type": "uint256"
        },
        {
          "indexed": false,
          "internalType": "uint256",
          "name": "startTxNumber",
          "type": "uint256"
        },
        {
          "indexed": false,
          "internalType": "uint256",
          "name": "endTxNumber",
          "type": "uint256"
        }
      ],
      "name": "TxBatchAppended",
      "type": "event"
    },
    {
      "anonymous": false,
      "inputs": [
        {
          "indexed": true,
          "internalType": "address",
          "name": "implementation",
          "type": "address"
        }
      ],
      "name": "Upgraded",
      "type": "event"
    },
    {
      "inputs": [
        {
          "internalType": "uint256",
          "name": "",
          "type": "uint256"
        }
      ],
      "name": "accumulators",
      "outputs": [
        {
          "internalType": "bytes32",
          "name": "",
          "type": "bytes32"
        }
      ],
      "stateMutability": "view",
      "type": "function"
    },
    {
      "inputs": [
        {
          "internalType": "uint256[]",
          "name": "contexts",
          "type": "uint256[]"
        },
        {
          "internalType": "uint256[]",
          "name": "txLengths",
          "type": "uint256[]"
        },
        {
          "internalType": "uint256",
          "name": "firstL2BlockNumber",
          "type": "uint256"
        },
        {
          "internalType": "bytes",
          "name": "txBatch",
          "type": "bytes"
        }
      ],
      "name": "appendTxBatch",
      "outputs": [],
      "stateMutability": "nonpayable",
      "type": "function"
    },
    {
      "inputs": [],
      "name": "getInboxSize",
      "outputs": [
        {
          "internalType": "uint256",
          "name": "",
          "type": "uint256"
        }
      ],
      "stateMutability": "view",
      "type": "function"
    },
    {
      "inputs": [
        {
          "internalType": "address",
          "name": "_sequencerAddress",
          "type": "address"
        }
      ],
      "name": "initialize",
      "outputs": [],
      "stateMutability": "nonpayable",
      "type": "function"
    },
    {
      "inputs": [],
      "name": "owner",
      "outputs": [
        {
          "internalType": "address",
          "name": "",
          "type": "address"
        }
      ],
      "stateMutability": "view",
      "type": "function"
    },
    {
      "inputs": [],
      "name": "proxiableUUID",
      "outputs": [
        {
          "internalType": "bytes32",
          "name": "",
          "type": "bytes32"
        }
      ],
      "stateMutability": "view",
      "type": "function"
    },
    {
      "inputs": [],
      "name": "renounceOwnership",
      "outputs": [],
      "stateMutability": "nonpayable",
      "type": "function"
    },
    {
      "inputs": [],
      "name": "sequencerAddress",
      "outputs": [
        {
          "internalType": "address",
          "name": "",
          "type": "address"
        }
      ],
      "stateMutability": "view",
      "type": "function"
    },
    {
      "inputs": [
        {
          "internalType": "address",
          "name": "newOwner",
          "type": "address"
        }
      ],
      "name": "transferOwnership",
      "outputs": [],
      "stateMutability": "nonpayable",
      "type": "function"
    },
    {
      "inputs": [
        {
          "internalType": "address",
          "name": "newImplementation",
          "type": "address"
        }
      ],
      "name": "upgradeTo",
      "outputs": [],
      "stateMutability": "nonpayable",
      "type": "function"
    },
    {
      "inputs": [
        {
          "internalType": "address",
          "name": "newImplementation",
          "type": "address"
        },
        {
          "internalType": "bytes",
          "name": "data",
          "type": "bytes"
        }
      ],
      "name": "upgradeToAndCall",
      "outputs": [],
      "stateMutability": "payable",
      "type": "function"
    },
    {
      "inputs": [
        {
          "internalType": "bytes",
          "name": "encodedTx",
          "type": "bytes"
        },
        {
          "internalType": "bytes",
          "name": "proof",
          "type": "bytes"
        }
      ],
      "name": "verifyTxInclusion",
      "outputs": [],
      "stateMutability": "view",
      "type": "function"
    }
  ],
  "numDeployments": 1,
  "solcInputHash": "626f3678c343da9345ec00a1d1226bd4",
  "bytecode": "0x60a06040523060601b60805234801561001757600080fd5b50610020610025565b6100e5565b600054610100900460ff16156100915760405162461bcd60e51b815260206004820152602760248201527f496e697469616c697a61626c653a20636f6e747261637420697320696e697469604482015266616c697a696e6760c81b606482015260840160405180910390fd5b60005460ff90811610156100e3576000805460ff191660ff9081179091556040519081527f7f26b83ff96e1f2b6a682f133852f6798a09c465da95921460cefb38474024989060200160405180910390a15b565b60805160601c6118d261011f600039600081816102550152818161029e0152818161033e0152818161037e015261041101526118d26000f3fe6080604052600436106100a75760003560e01c8063715018a611610064578063715018a6146101765780638da5cb5b1461018b578063c4d66de8146101a9578063e1804b49146101c9578063f2fde38b146101e9578063f785968f1461020957600080fd5b80631f67994e146100ac57806329869a7f146100df5780632cee6a6b146100f45780633659cfe61461012c5780634f1ef2861461014e57806352d1902d14610161575b600080fd5b3480156100b857600080fd5b506100cc6100c7366004611631565b610229565b6040519081526020015b60405180910390f35b3480156100eb57600080fd5b5060c9546100cc565b34801561010057600080fd5b5060cb54610114906001600160a01b031681565b6040516001600160a01b0390911681526020016100d6565b34801561013857600080fd5b5061014c610147366004611439565b61024a565b005b61014c61015c366004611453565b610333565b34801561016d57600080fd5b506100cc610404565b34801561018257600080fd5b5061014c6104b7565b34801561019757600080fd5b506097546001600160a01b0316610114565b3480156101b557600080fd5b5061014c6101c4366004611439565b6104cb565b3480156101d557600080fd5b5061014c6101e4366004611510565b610626565b3480156101f557600080fd5b5061014c610204366004611439565b610967565b34801561021557600080fd5b5061014c6102243660046115c8565b6109dd565b60ca818154811061023957600080fd5b600091825260209091200154905081565b306001600160a01b037f000000000000000000000000000000000000000000000000000000000000000016141561029c5760405162461bcd60e51b8152600401610293906116a8565b60405180910390fd5b7f00000000000000000000000000000000000000000000000000000000000000006001600160a01b03166102e5600080516020611856833981519152546001600160a01b031690565b6001600160a01b03161461030b5760405162461bcd60e51b8152600401610293906116f4565b61031481610d01565b6040805160008082526020820190925261033091839190610d09565b50565b306001600160a01b037f000000000000000000000000000000000000000000000000000000000000000016141561037c5760405162461bcd60e51b8152600401610293906116a8565b7f00000000000000000000000000000000000000000000000000000000000000006001600160a01b03166103c5600080516020611856833981519152546001600160a01b031690565b6001600160a01b0316146103eb5760405162461bcd60e51b8152600401610293906116f4565b6103f482610d01565b61040082826001610d09565b5050565b6000306001600160a01b037f000000000000000000000000000000000000000000000000000000000000000016146104a45760405162461bcd60e51b815260206004820152603860248201527f555550535570677261646561626c653a206d757374206e6f742062652063616c60448201527f6c6564207468726f7567682064656c656761746563616c6c00000000000000006064820152608401610293565b5060008051602061185683398151915290565b6104bf610e88565b6104c96000610ee2565b565b600054610100900460ff16158080156104eb5750600054600160ff909116105b806105055750303b158015610505575060005460ff166001145b6105685760405162461bcd60e51b815260206004820152602e60248201527f496e697469616c697a61626c653a20636f6e747261637420697320616c72656160448201526d191e481a5b9a5d1a585b1a5e995960921b6064820152608401610293565b6000805460ff19166001179055801561058b576000805461ff0019166101001790555b6001600160a01b0382166105b25760405163d92e233d60e01b815260040160405180910390fd5b60cb80546001600160a01b0319166001600160a01b0384161790556105d5610f34565b6105dd610f63565b8015610400576000805461ff0019169055604051600181527f7f26b83ff96e1f2b6a682f133852f6798a09c465da95921460cefb38474024989060200160405180910390a15050565b60cb546001600160a01b031633146106665760cb54604051630545cff960e21b81523360048201526001600160a01b039091166024820152604401610293565b60c95460ca54600090156106b05760ca8054610684906001906117cb565b815481106106a257634e487b7160e01b600052603260045260246000fd5b906000526020600020015490505b600085815b8a6106c18260026117b3565b116108ab5760008c8c6106d58460016117b3565b8181106106f257634e487b7160e01b600052603260045260246000fd5b60cb5460405160609190911b6bffffffffffffffffffffffff191660208083019190915260348201889052919091029290920135605483018190529250600091607401905060405160208183030381529060405280519060200120905060008e8e8581811061077157634e487b7160e01b600052603260045260246000fd5b90506020020135905060005b818110156108865760008e8e60c9548c61079791906117cb565b8181106107b457634e487b7160e01b600052603260045260246000fd5b602002919091013591508b90506107cb828a6117b3565b11156107ea5760405163020516e760e31b815260040160405180910390fd5b60008c898d6107f985836117b3565b926108069392919061178b565b604051610814929190611649565b60408051918290038220602083018d90529082018d90526060820187905260808201819052915060a001604051602081830303815290604052805190602001209950818961086291906117b3565b98508a61086e8161180e565b9b50505050808061087e9061180e565b91505061077d565b50846108918161180e565b9550505050506002816108a491906117b3565b90506106b5565b5060c95484116108ce5760405163c2e5347d60e01b815260040160405180910390fd5b60c980549085905560ca80546001818101835560008390527f42d72674974f694b5f5159593243114d38a5c39c89d6b62fee061ff523240ee190910186905590547f0611f4b7c4b81a9158f0c0e9aae0a88c50eaa3efdaee2f87bd796c8c6ef7bffc9161093a916117cb565b60c954604080519283526020830185905282015260600160405180910390a1505050505050505050505050565b61096f610e88565b6001600160a01b0381166109d45760405162461bcd60e51b815260206004820152602660248201527f4f776e61626c653a206e6577206f776e657220697320746865207a65726f206160448201526564647265737360d01b6064820152608401610293565b61033081610ee2565b600080610a2184848080601f016020809104026020016040519081016040528093929190818152602001838380828437600092019190915250869250610f8a915050565b8092508193505050600080600080610a7088888080601f0160208091040260200160405190810160405280939291908181526020018383808284376000920191909152508a9250611004915050565b8095508197505050610ab988888080601f0160208091040260200160405190810160405280939291908181526020018383808284376000920191909152508a9250611004915050565b8094508197505050610b0288888080601f0160208091040260200160405190810160405280939291908181526020018383808284376000920191909152508a9250611004915050565b8093508197505050610b4b88888080601f0160208091040260200160405190810160405280939291908181526020018383808284376000920191909152508a9250610f8a915050565b6040519197509150600090610b63908c908c90611649565b60408051918290038220602083018590529082018690526060820188905260808201819052915060a0016040516020818303038152906040528051906020012091508380610bb09061180e565b94505060005b83811015610ca857610bff8a8a8080601f0160208091040260200160405190810160405280939291908181526020018383808284376000920191909152508c9250610f8a915050565b8098508199505050610c488a8a8080601f0160208091040260200160405190810160405280939291908181526020018383808284376000920191909152508c9250610f8a915050565b6040805160208101879052908101889052606081018a905260808101829052919950925060a0016040516020818303038152906040528051906020012092508480610c929061180e565b9550508080610ca09061180e565b915050610bb6565b5060ca8581548110610cca57634e487b7160e01b600052603260045260246000fd5b90600052602060002001548214610cf457604051631ac2386360e31b815260040160405180910390fd5b5050505050505050505050565b610330610e88565b7f4910fdfa16fed3260ed0e7147f7cc6da11a60208b5b9406d12a635614ffd91435460ff1615610d4157610d3c83611072565b505050565b826001600160a01b03166352d1902d6040518163ffffffff1660e01b815260040160206040518083038186803b158015610d7a57600080fd5b505afa925050508015610daa575060408051601f3d908101601f19168201909252610da7918101906115b0565b60015b610e0d5760405162461bcd60e51b815260206004820152602e60248201527f45524331393637557067726164653a206e657720696d706c656d656e7461746960448201526d6f6e206973206e6f74205555505360901b6064820152608401610293565b6000805160206118568339815191528114610e7c5760405162461bcd60e51b815260206004820152602960248201527f45524331393637557067726164653a20756e737570706f727465642070726f786044820152681a58589b195555525160ba1b6064820152608401610293565b50610d3c83838361110e565b6097546001600160a01b031633146104c95760405162461bcd60e51b815260206004820181905260248201527f4f776e61626c653a2063616c6c6572206973206e6f7420746865206f776e65726044820152606401610293565b609780546001600160a01b038381166001600160a01b0319831681179093556040519116919082907f8be0079c531659141344cd1fd0a4f28419497f9722a3daafe3b4186f6b6457e090600090a35050565b600054610100900460ff16610f5b5760405162461bcd60e51b815260040161029390611740565b6104c9611139565b600054610100900460ff166104c95760405162461bcd60e51b815260040161029390611740565b60008082845110158015610fab57506020838551610fa891906117cb565b10155b610fe35760405162461bcd60e51b81526020600482015260096024820152681d1bdbc81cda1bdc9d60ba1b6044820152606401610293565b610fee8360206117b3565b610ff88585611169565b915091505b9250929050565b600080828451101580156110255750602083855161102291906117cb565b10155b61105d5760405162461bcd60e51b81526020600482015260096024820152681d1bdbc81cda1bdc9d60ba1b6044820152606401610293565b6110688360206117b3565b610ff885856111c7565b6001600160a01b0381163b6110df5760405162461bcd60e51b815260206004820152602d60248201527f455243313936373a206e657720696d706c656d656e746174696f6e206973206e60448201526c1bdd08184818dbdb9d1c9858dd609a1b6064820152608401610293565b60008051602061185683398151915280546001600160a01b0319166001600160a01b0392909216919091179055565b6111178361121c565b6000825111806111245750805b15610d3c57611133838361125c565b50505050565b600054610100900460ff166111605760405162461bcd60e51b815260040161029390611740565b6104c933610ee2565b60006111768260206117b3565b835110156111be5760405162461bcd60e51b8152602060048201526015602482015274746f427974657333325f6f75744f66426f756e647360581b6044820152606401610293565b50016020015190565b60006111d48260206117b3565b835110156111be5760405162461bcd60e51b8152602060048201526015602482015274746f55696e743235365f6f75744f66426f756e647360581b6044820152606401610293565b61122581611072565b6040516001600160a01b038216907fbc7cd75a20ee27fd9adebab32041f755214dbc6bffa90cc0225b39da2e5c2d3b90600090a250565b60606001600160a01b0383163b6112c45760405162461bcd60e51b815260206004820152602660248201527f416464726573733a2064656c65676174652063616c6c20746f206e6f6e2d636f6044820152651b9d1c9858dd60d21b6064820152608401610293565b600080846001600160a01b0316846040516112df9190611659565b600060405180830381855af49150503d806000811461131a576040519150601f19603f3d011682016040523d82523d6000602084013e61131f565b606091505b5091509150611347828260405180606001604052806027815260200161187660279139611350565b95945050505050565b6060831561135f575081611369565b6113698383611370565b9392505050565b8151156113805781518083602001fd5b8060405162461bcd60e51b81526004016102939190611675565b80356001600160a01b03811681146113b157600080fd5b919050565b60008083601f8401126113c7578081fd5b50813567ffffffffffffffff8111156113de578182fd5b6020830191508360208260051b8501011115610ffd57600080fd5b60008083601f84011261140a578182fd5b50813567ffffffffffffffff811115611421578182fd5b602083019150836020828501011115610ffd57600080fd5b60006020828403121561144a578081fd5b6113698261139a565b60008060408385031215611465578081fd5b61146e8361139a565b9150602083013567ffffffffffffffff8082111561148a578283fd5b818501915085601f83011261149d578283fd5b8135818111156114af576114af61183f565b604051601f8201601f19908116603f011681019083821181831017156114d7576114d761183f565b816040528281528860208487010111156114ef578586fd5b82602086016020830137856020848301015280955050505050509250929050565b60008060008060008060006080888a03121561152a578283fd5b873567ffffffffffffffff80821115611541578485fd5b61154d8b838c016113b6565b909950975060208a0135915080821115611565578485fd5b6115718b838c016113b6565b909750955060408a0135945060608a0135915080821115611590578384fd5b5061159d8a828b016113f9565b989b979a50959850939692959293505050565b6000602082840312156115c1578081fd5b5051919050565b600080600080604085870312156115dd578384fd5b843567ffffffffffffffff808211156115f4578586fd5b611600888389016113f9565b90965094506020870135915080821115611618578384fd5b50611625878288016113f9565b95989497509550505050565b600060208284031215611642578081fd5b5035919050565b8183823760009101908152919050565b6000825161166b8184602087016117e2565b9190910192915050565b60208152600082518060208401526116948160408501602087016117e2565b601f01601f19169190910160400192915050565b6020808252602c908201527f46756e6374696f6e206d7573742062652063616c6c6564207468726f7567682060408201526b19195b1959d85d1958d85b1b60a21b606082015260800190565b6020808252602c908201527f46756e6374696f6e206d7573742062652063616c6c6564207468726f7567682060408201526b6163746976652070726f787960a01b606082015260800190565b6020808252602b908201527f496e697469616c697a61626c653a20636f6e7472616374206973206e6f74206960408201526a6e697469616c697a696e6760a81b606082015260800190565b6000808585111561179a578182fd5b838611156117a6578182fd5b5050820193919092039150565b600082198211156117c6576117c6611829565b500190565b6000828210156117dd576117dd611829565b500390565b60005b838110156117fd5781810151838201526020016117e5565b838111156111335750506000910152565b600060001982141561182257611822611829565b5060010190565b634e487b7160e01b600052601160045260246000fd5b634e487b7160e01b600052604160045260246000fdfe360894a13ba1a3210667c828492db98dca3e2076cc3735a920a3ca505d382bbc416464726573733a206c6f772d6c6576656c2064656c65676174652063616c6c206661696c6564a264697066735822122096dcd345f521d0e8c4f8334fddecc36184958d6b493683543e057d976cba9ba564736f6c63430008040033",
  "devdoc": {
    "errors": {
      "EmptyBatch()": [
        {
          "details": "Thrown when sequencer tries to append an empty batch"
        }
      ],
      "NotSequencer(address,address)": [
        {
          "details": "Thrown when unauthorized (!sequencer) address calls an only-sequencer function",
          "params": {
            "sender": "Address of the caller",
            "sequencer": "The sequencer address authorized to call this function"
          }
        }
      ],
      "ProofVerificationFailed()": [
        {
          "details": "Thrown when the given tx inlcusion proof couldn't be verified."
        }
      ],
      "TxBatchDataOverflow()": [
        {
          "details": "Thrown when overflow occurs reading txBatch (likely due to malformed txLengths)"
        }
      ],
      "ZeroAddress()": [
        {
          "details": "Thrown when function is called with a zero address argument"
        }
      ]
    },
    "kind": "dev",
    "methods": {
      "appendTxBatch(uint256[],uint256[],uint256,bytes)": {
        "params": {
          "contexts": "Array of contexts, where each context is represented by a uint256 2-tuple: (numTxs, l2Timestamp). Each context corresponds to a single \"L2 block\".",
          "firstL2BlockNumber": "The block number of the first \"L2 block\" included in this batch.",
          "txBatch": "Batch of RLP-encoded transactions.",
          "txLengths": "Array of lengths of each encoded tx in txBatch."
        }
      },
      "constructor": {
        "custom:oz-upgrades-unsafe-allow": "constructor"
      },
      "owner()": {
        "details": "Returns the address of the current owner."
      },
      "proxiableUUID()": {
        "details": "Implementation of the ERC1822 {proxiableUUID} function. This returns the storage slot used by the implementation. It is used to validate the implementation's compatibility when performing an upgrade. IMPORTANT: A proxy pointing at a proxiable contract should not be considered proxiable itself, because this risks bricking a proxy that upgrades to it, by delegating to itself until out of gas. Thus it is critical that this function revert if invoked through a proxy. This is guaranteed by the `notDelegated` modifier."
      },
      "renounceOwnership()": {
        "details": "Leaves the contract without owner. It will not be possible to call `onlyOwner` functions anymore. Can only be called by the current owner. NOTE: Renouncing ownership will leave the contract without an owner, thereby removing any functionality that is only available to the owner."
      },
      "transferOwnership(address)": {
        "details": "Transfers ownership of the contract to a new account (`newOwner`). Can only be called by the current owner."
      },
      "upgradeTo(address)": {
        "details": "Upgrade the implementation of the proxy to `newImplementation`. Calls {_authorizeUpgrade}. Emits an {Upgraded} event."
      },
      "upgradeToAndCall(address,bytes)": {
        "details": "Upgrade the implementation of the proxy to `newImplementation`, and subsequently execute the function call encoded in `data`. Calls {_authorizeUpgrade}. Emits an {Upgraded} event."
      },
      "verifyTxInclusion(bytes,bytes)": {
        "params": {
          "encodedTx": "Transaction to verify inclusion of.",
          "proof": "Proof of inclusion, in the form: proof := txContextHash || batchInfo || {foreach tx in batch: (txContextHash || KEC(txData)), ...} where, batchInfo := (batchNum || numTxsBefore || numTxsAfterInBatch || accBefore) txContextHash := KEC(sequencerAddress || l2BlockNumber || l2Timestamp)"
        }
      }
    },
    "version": 1
  },
  "userdoc": {
    "kind": "user",
    "methods": {
      "appendTxBatch(uint256[],uint256[],uint256,bytes)": {
        "notice": "Appends a batch of transactions (stored in calldata) and emits a TxBatchAppended event."
      },
      "getInboxSize()": {
        "notice": "Gets inbox size (total number of messages stored)."
      },
      "verifyTxInclusion(bytes,bytes)": {
        "notice": "Verifies that a transaction is included in a batch, at the expected offset."
      }
    },
    "version": 1
  },
  "storageLayout": {
    "storage": [
      {
        "astId": 534,
        "contract": "src/SequencerInbox.sol:SequencerInbox",
        "label": "_initialized",
        "offset": 0,
        "slot": "0",
        "type": "t_uint8"
      },
      {
        "astId": 537,
        "contract": "src/SequencerInbox.sol:SequencerInbox",
        "label": "_initializing",
        "offset": 1,
        "slot": "0",
        "type": "t_bool"
      },
      {
        "astId": 516,
        "contract": "src/SequencerInbox.sol:SequencerInbox",
        "label": "__gap",
        "offset": 0,
        "slot": "1",
        "type": "t_array(t_uint256)50_storage"
      },
      {
        "astId": 831,
        "contract": "src/SequencerInbox.sol:SequencerInbox",
        "label": "__gap",
        "offset": 0,
        "slot": "51",
        "type": "t_array(t_uint256)50_storage"
      },
      {
        "astId": 1157,
        "contract": "src/SequencerInbox.sol:SequencerInbox",
        "label": "__gap",
        "offset": 0,
        "slot": "101",
        "type": "t_array(t_uint256)50_storage"
      },
      {
        "astId": 10,
        "contract": "src/SequencerInbox.sol:SequencerInbox",
        "label": "_owner",
        "offset": 0,
        "slot": "151",
        "type": "t_address"
      },
      {
        "astId": 130,
        "contract": "src/SequencerInbox.sol:SequencerInbox",
        "label": "__gap",
        "offset": 0,
        "slot": "152",
        "type": "t_array(t_uint256)49_storage"
      },
      {
        "astId": 3058,
        "contract": "src/SequencerInbox.sol:SequencerInbox",
        "label": "inboxSize",
        "offset": 0,
        "slot": "201",
        "type": "t_uint256"
      },
      {
        "astId": 3061,
        "contract": "src/SequencerInbox.sol:SequencerInbox",
        "label": "accumulators",
        "offset": 0,
        "slot": "202",
        "type": "t_array(t_bytes32)dyn_storage"
      },
      {
        "astId": 3063,
        "contract": "src/SequencerInbox.sol:SequencerInbox",
        "label": "sequencerAddress",
        "offset": 0,
        "slot": "203",
        "type": "t_address"
      }
    ],
    "types": {
      "t_address": {
        "encoding": "inplace",
        "label": "address",
        "numberOfBytes": "20"
      },
      "t_array(t_bytes32)dyn_storage": {
        "base": "t_bytes32",
        "encoding": "dynamic_array",
        "label": "bytes32[]",
        "numberOfBytes": "32"
      },
      "t_array(t_uint256)49_storage": {
        "base": "t_uint256",
        "encoding": "inplace",
        "label": "uint256[49]",
        "numberOfBytes": "1568"
      },
      "t_array(t_uint256)50_storage": {
        "base": "t_uint256",
        "encoding": "inplace",
        "label": "uint256[50]",
        "numberOfBytes": "1600"
      },
      "t_bool": {
        "encoding": "inplace",
        "label": "bool",
        "numberOfBytes": "1"
      },
      "t_bytes32": {
        "encoding": "inplace",
        "label": "bytes32",
        "numberOfBytes": "32"
      },
      "t_uint256": {
        "encoding": "inplace",
        "label": "uint256",
        "numberOfBytes": "32"
      },
      "t_uint8": {
        "encoding": "inplace",
        "label": "uint8",
        "numberOfBytes": "1"
      }
    }
  }
}